{
  "contractName": "FathomPriceOracle",
  "abi": [
    {
      "anonymous": false,
      "inputs": [
        {
          "indexed": false,
          "internalType": "uint8",
          "name": "version",
          "type": "uint8"
        }
      ],
      "name": "Initialized",
      "type": "event"
    },
    {
      "anonymous": false,
      "inputs": [
        {
          "indexed": true,
          "internalType": "address",
          "name": "_caller",
          "type": "address"
        },
        {
          "indexed": false,
          "internalType": "address",
          "name": "_accessControlConfig",
          "type": "address"
        }
      ],
      "name": "LogSetAccessControlConfig",
      "type": "event"
    },
    {
      "inputs": [],
      "name": "accessControlConfig",
      "outputs": [
        {
          "internalType": "contract IAccessControlConfig",
          "name": "",
          "type": "address"
        }
      ],
      "stateMutability": "view",
      "type": "function"
    },
    {
      "inputs": [],
      "name": "oracle",
      "outputs": [
        {
          "internalType": "contract IFathomOracleAggregator",
          "name": "",
          "type": "address"
        }
      ],
      "stateMutability": "view",
      "type": "function"
    },
    {
      "inputs": [
        {
          "internalType": "address",
          "name": "_accessControlConfig",
          "type": "address"
        },
        {
          "internalType": "address",
          "name": "_oracle",
          "type": "address"
        }
      ],
      "name": "initialize",
      "outputs": [],
      "stateMutability": "nonpayable",
      "type": "function"
    },
    {
      "inputs": [
        {
          "internalType": "address",
          "name": "_accessControlConfig",
          "type": "address"
        }
      ],
      "name": "setAccessControlConfig",
      "outputs": [],
      "stateMutability": "nonpayable",
      "type": "function"
    },
    {
      "inputs": [
        {
          "internalType": "address",
          "name": "_oracle",
          "type": "address"
        }
      ],
      "name": "setOracle",
      "outputs": [],
      "stateMutability": "nonpayable",
      "type": "function"
    },
    {
      "inputs": [],
      "name": "getPrice",
      "outputs": [
        {
          "internalType": "uint256",
          "name": "price",
          "type": "uint256"
        },
        {
          "internalType": "uint256",
          "name": "lastUpdated",
          "type": "uint256"
        }
      ],
      "stateMutability": "view",
      "type": "function"
    }
  ],
  "bytecode": "0x608060405234801561001057600080fd5b506109da806100206000396000f3fe608060405234801561001057600080fd5b50600436106100625760003560e01c8063485cc955146100675780637adbf9731461007c5780637dc0d1d01461008f57806398d5fdca146100c5578063c8cc243f146100e2578063ec500099146100f5575b600080fd5b61007a6100753660046108aa565b610108565b005b61007a61008a3660046108dd565b610372565b6000546100a8906201000090046001600160a01b031681565b6040516001600160a01b0390911681526020015b60405180910390f35b6100cd61056c565b604080519283526020830191909152016100bc565b6001546100a8906001600160a01b031681565b61007a6101033660046108dd565b6105f2565b600054610100900460ff16158080156101285750600054600160ff909116105b806101425750303b158015610142575060005460ff166001145b6101aa5760405162461bcd60e51b815260206004820152602e60248201527f496e697469616c697a61626c653a20636f6e747261637420697320616c72656160448201526d191e481a5b9a5d1a585b1a5e995960921b60648201526084015b60405180910390fd5b6000805460ff1916600117905580156101cd576000805461ff0019166101001790555b6001600160a01b0383166102235760405162461bcd60e51b815260206004820152601f60248201527f466174686f6d50726963654f7261636c653a205a45524f5f414444524553530060448201526064016101a1565b82600160006101000a8154816001600160a01b0302191690836001600160a01b031602179055506000826001600160a01b031663feaf968c6040518163ffffffff1660e01b815260040160a060405180830381865afa15801561028a573d6000803e3d6000fd5b505050506040513d601f19601f820116820180604052508101906102ae9190610919565b505050915050600081116103045760405162461bcd60e51b815260206004820181905260248201527f466174686f6d50726963654f7261636c652f696e76616c69642d6f7261636c6560448201526064016101a1565b506000805462010000600160b01b031916620100006001600160a01b03851602179055801561036d576000805461ff0019169055604051600181527f7f26b83ff96e1f2b6a682f133852f6798a09c465da95921460cefb38474024989060200160405180910390a15b505050565b6001546040805163e58378bb60e01b815290516001600160a01b03909216916391d1485491839163e58378bb916004808201926020929091908290030181865afa1580156103c4573d6000803e3d6000fd5b505050506040513d601f19601f820116820180604052508101906103e89190610969565b6040516001600160e01b031960e084901b1681526004810191909152336024820152604401602060405180830381865afa15801561042a573d6000803e3d6000fd5b505050506040513d601f19601f8201168201806040525081019061044e9190610982565b6104875760405162461bcd60e51b815260206004820152600a602482015269216f776e6572526f6c6560b01b60448201526064016101a1565b6000816001600160a01b031663feaf968c6040518163ffffffff1660e01b815260040160a060405180830381865afa1580156104c7573d6000803e3d6000fd5b505050506040513d601f19601f820116820180604052508101906104eb9190610919565b505050915050600081116105415760405162461bcd60e51b815260206004820181905260248201527f466174686f6d50726963654f7261636c652f696e76616c69642d6f7261636c6560448201526064016101a1565b50600080546001600160a01b03909216620100000262010000600160b01b0319909216919091179055565b600080600060029054906101000a90046001600160a01b03166001600160a01b031663feaf968c6040518163ffffffff1660e01b815260040160a060405180830381865afa1580156105c2573d6000803e3d6000fd5b505050506040513d601f19601f820116820180604052508101906105e69190610919565b50919590945092505050565b6001546040805163e58378bb60e01b815290516001600160a01b03909216916391d1485491839163e58378bb916004808201926020929091908290030181865afa158015610644573d6000803e3d6000fd5b505050506040513d601f19601f820116820180604052508101906106689190610969565b6040516001600160e01b031960e084901b1681526004810191909152336024820152604401602060405180830381865afa1580156106aa573d6000803e3d6000fd5b505050506040513d601f19601f820116820180604052508101906106ce9190610982565b6107075760405162461bcd60e51b815260206004820152600a602482015269216f776e6572526f6c6560b01b60448201526064016101a1565b806001600160a01b03166391d14854826001600160a01b031663e58378bb6040518163ffffffff1660e01b8152600401602060405180830381865afa158015610754573d6000803e3d6000fd5b505050506040513d601f19601f820116820180604052508101906107789190610969565b6040516001600160e01b031960e084901b1681526004810191909152336024820152604401602060405180830381865afa1580156107ba573d6000803e3d6000fd5b505050506040513d601f19601f820116820180604052508101906107de9190610982565b6108385760405162461bcd60e51b815260206004820152602560248201527f466174686f6d50726963654f7261636c652f6d736773656e6465722d6e6f742d60448201526437bbb732b960d91b60648201526084016101a1565b600180546001600160a01b0319166001600160a01b03831690811790915560405190815233907f104d594bb3ca960b0fc4fe7e747247b97b766449771c92e9a57395b370fd9a629060200160405180910390a250565b80356001600160a01b03811681146108a557600080fd5b919050565b600080604083850312156108bd57600080fd5b6108c68361088e565b91506108d46020840161088e565b90509250929050565b6000602082840312156108ef57600080fd5b6108f88261088e565b9392505050565b805169ffffffffffffffffffff811681146108a557600080fd5b600080600080600060a0868803121561093157600080fd5b61093a866108ff565b945060208601519350604086015192506060860151915061095d608087016108ff565b90509295509295909350565b60006020828403121561097b57600080fd5b5051919050565b60006020828403121561099457600080fd5b815180151581146108f857600080fdfea264697066735822122027beb15803bbc2366d560042998c8632ea08ed736a8cd1703c90b2a7c24c096864736f6c63430008110033",
  "immutableReferences": {},
  "source": "// SPDX-License-Identifier: AGPL-3.0-or-later\npragma solidity 0.8.17;\n\nimport \"@openzeppelin/contracts-upgradeable/proxy/utils/Initializable.sol\";\n\nimport \"../interfaces/IFathomCentralizedOracle.sol\";\nimport \"../interfaces/IAccessControlConfig.sol\";\nimport \"../apis/interfaces/IFathomOracleAggregator.sol\";\n\ncontract FathomPriceOracle is Initializable, IFathomCentralizedOracle {\n    IFathomOracleAggregator public oracle;\n    IAccessControlConfig public accessControlConfig;\n\n    modifier onlyOwner() {\n        require(accessControlConfig.hasRole(accessControlConfig.OWNER_ROLE(), msg.sender), \"!ownerRole\");\n        _;\n    }\n\n    function initialize(address _accessControlConfig, address _oracle) external initializer {\n        require(_accessControlConfig != address(0), \"FathomPriceOracle: ZERO_ADDRESS\");\n        accessControlConfig = IAccessControlConfig(_accessControlConfig);\n\n        (, uint256 value, , , ) = IFathomOracleAggregator(_oracle).latestRoundData();\n        require(value > 0, \"FathomPriceOracle/invalid-oracle\");\n        oracle = IFathomOracleAggregator(_oracle);\n    }\n\n    function setAccessControlConfig(address _accessControlConfig) external onlyOwner {\n        require(\n            IAccessControlConfig(_accessControlConfig).hasRole(IAccessControlConfig(_accessControlConfig).OWNER_ROLE(), msg.sender),\n            \"FathomPriceOracle/msgsender-not-owner\"\n        );\n        accessControlConfig = IAccessControlConfig(_accessControlConfig);\n        emit LogSetAccessControlConfig(msg.sender, _accessControlConfig);\n    }\n\n    function setOracle(address _oracle) external onlyOwner {\n        (, uint256 value, , , ) = IFathomOracleAggregator(_oracle).latestRoundData();\n        require(value > 0, \"FathomPriceOracle/invalid-oracle\");\n        oracle = IFathomOracleAggregator(_oracle);\n    }\n\n    function getPrice() external view returns (uint256 price, uint256 lastUpdated) {\n        (, price, lastUpdated, , ) = oracle.latestRoundData();\n    }\n}\n",
  "sourcePath": "/Users/sangjun/Documents/GitHub/fathom-stablecoin-smart-contracts/contracts/main/price-oracles/FathomPriceOracle.sol",
  "compiler": {
    "name": "solc",
    "version": "0.8.17+commit.8df45f5f.Emscripten.clang"
  },
  "schemaVersion": "3.4.14",
  "updatedAt": "2023-12-21T12:26:25.104Z",
  "devdoc": {
    "kind": "dev",
    "methods": {},
    "version": 1
  },
  "userdoc": {
    "kind": "user",
    "methods": {},
    "version": 1
  }
}