{
    "contractName": "MultiSigWallet",
    "abi": [
        {
            "inputs": [
                {
                    "internalType": "address[]",
                    "name": "_owners",
                    "type": "address[]"
                },
                {
                    "internalType": "uint256",
                    "name": "_numConfirmationsRequired",
                    "type": "uint256"
                },
                {
                    "internalType": "address",
                    "name": "_governor",
                    "type": "address"
                }
            ],
            "stateMutability": "nonpayable",
            "type": "constructor"
        },
        {
            "inputs": [],
            "name": "ExistingOwner",
            "type": "error"
        },
        {
            "inputs": [],
            "name": "InsufficientBalance",
            "type": "error"
        },
        {
            "inputs": [],
            "name": "InsufficientValueOrBadCalldata",
            "type": "error"
        },
        {
            "inputs": [],
            "name": "InvalidRequirement",
            "type": "error"
        },
        {
            "inputs": [],
            "name": "InvalidZeroAddress",
            "type": "error"
        },
        {
            "inputs": [],
            "name": "LifetimeMaximumExceeded",
            "type": "error"
        },
        {
            "inputs": [],
            "name": "LifetimeMinimumNotMet",
            "type": "error"
        },
        {
            "inputs": [],
            "name": "OnlyOwner",
            "type": "error"
        },
        {
            "inputs": [],
            "name": "OnlyOwnerOrGov",
            "type": "error"
        },
        {
            "inputs": [],
            "name": "OnlyWallet",
            "type": "error"
        },
        {
            "inputs": [],
            "name": "OwnerNotFound",
            "type": "error"
        },
        {
            "inputs": [],
            "name": "TargetCodeChanged",
            "type": "error"
        },
        {
            "inputs": [],
            "name": "TxAlreadyConfirmed",
            "type": "error"
        },
        {
            "inputs": [],
            "name": "TxAlreadyExecuted",
            "type": "error"
        },
        {
            "inputs": [],
            "name": "TxDoesNotExist",
            "type": "error"
        },
        {
            "inputs": [],
            "name": "TxExpired",
            "type": "error"
        },
        {
            "inputs": [],
            "name": "TxNotConfirmed",
            "type": "error"
        },
        {
            "inputs": [],
            "name": "TxNotValidBecauseOwnerWasRemoved",
            "type": "error"
        },
        {
            "anonymous": false,
            "inputs": [
                {
                    "indexed": true,
                    "internalType": "address",
                    "name": "owner",
                    "type": "address"
                },
                {
                    "indexed": true,
                    "internalType": "uint256",
                    "name": "txIndex",
                    "type": "uint256"
                }
            ],
            "name": "ConfirmTransaction",
            "type": "event"
        },
        {
            "anonymous": false,
            "inputs": [
                {
                    "indexed": true,
                    "internalType": "address",
                    "name": "sender",
                    "type": "address"
                },
                {
                    "indexed": false,
                    "internalType": "uint256",
                    "name": "amount",
                    "type": "uint256"
                },
                {
                    "indexed": false,
                    "internalType": "uint256",
                    "name": "balance",
                    "type": "uint256"
                }
            ],
            "name": "Deposit",
            "type": "event"
        },
        {
            "anonymous": false,
            "inputs": [
                {
                    "indexed": true,
                    "internalType": "address",
                    "name": "owner",
                    "type": "address"
                },
                {
                    "indexed": true,
                    "internalType": "uint256",
                    "name": "txIndex",
                    "type": "uint256"
                }
            ],
            "name": "ExecuteTransaction",
            "type": "event"
        },
        {
            "anonymous": false,
            "inputs": [
                {
                    "indexed": true,
                    "internalType": "address",
                    "name": "owner",
                    "type": "address"
                }
            ],
            "name": "OwnerAddition",
            "type": "event"
        },
        {
            "anonymous": false,
            "inputs": [
                {
                    "indexed": true,
                    "internalType": "address",
                    "name": "owner",
                    "type": "address"
                }
            ],
            "name": "OwnerRemoval",
            "type": "event"
        },
        {
            "anonymous": false,
            "inputs": [
                {
                    "indexed": false,
                    "internalType": "uint256",
                    "name": "required",
                    "type": "uint256"
                }
            ],
            "name": "RequirementChange",
            "type": "event"
        },
        {
            "anonymous": false,
            "inputs": [
                {
                    "indexed": true,
                    "internalType": "address",
                    "name": "owner",
                    "type": "address"
                },
                {
                    "indexed": true,
                    "internalType": "uint256",
                    "name": "txIndex",
                    "type": "uint256"
                }
            ],
            "name": "RevokeConfirmation",
            "type": "event"
        },
        {
            "anonymous": false,
            "inputs": [
                {
                    "indexed": true,
                    "internalType": "uint256",
                    "name": "txIndex",
                    "type": "uint256"
                },
                {
                    "indexed": true,
                    "internalType": "address",
                    "name": "owner",
                    "type": "address"
                },
                {
                    "indexed": true,
                    "internalType": "address",
                    "name": "to",
                    "type": "address"
                },
                {
                    "indexed": false,
                    "internalType": "uint256",
                    "name": "value",
                    "type": "uint256"
                },
                {
                    "indexed": false,
                    "internalType": "bytes",
                    "name": "data",
                    "type": "bytes"
                }
            ],
            "name": "SubmitTransaction",
            "type": "event"
        },
        {
            "inputs": [],
            "name": "MAXIMUM_LIFETIME",
            "outputs": [
                {
                    "internalType": "uint256",
                    "name": "",
                    "type": "uint256"
                }
            ],
            "stateMutability": "view",
            "type": "function"
        },
        {
            "inputs": [],
            "name": "MAX_OWNER_COUNT",
            "outputs": [
                {
                    "internalType": "uint256",
                    "name": "",
                    "type": "uint256"
                }
            ],
            "stateMutability": "view",
            "type": "function"
        },
        {
            "inputs": [],
            "name": "MINIMUM_LIFETIME",
            "outputs": [
                {
                    "internalType": "uint256",
                    "name": "",
                    "type": "uint256"
                }
            ],
            "stateMutability": "view",
            "type": "function"
        },
        {
            "inputs": [],
            "name": "firstValidTransactionIndexAfterOwnerRemoval",
            "outputs": [
                {
                    "internalType": "uint256",
                    "name": "",
                    "type": "uint256"
                }
            ],
            "stateMutability": "view",
            "type": "function"
        },
        {
            "inputs": [],
            "name": "governor",
            "outputs": [
                {
                    "internalType": "address",
                    "name": "",
                    "type": "address"
                }
            ],
            "stateMutability": "view",
            "type": "function"
        },
        {
            "inputs": [
                {
                    "internalType": "address",
                    "name": "",
                    "type": "address"
                }
            ],
            "name": "isOwner",
            "outputs": [
                {
                    "internalType": "bool",
                    "name": "",
                    "type": "bool"
                }
            ],
            "stateMutability": "view",
            "type": "function"
        },
        {
            "inputs": [],
            "name": "numConfirmationsRequired",
            "outputs": [
                {
                    "internalType": "uint256",
                    "name": "",
                    "type": "uint256"
                }
            ],
            "stateMutability": "view",
            "type": "function"
        },
        {
            "inputs": [
                {
                    "internalType": "uint256",
                    "name": "",
                    "type": "uint256"
                }
            ],
            "name": "transactions",
            "outputs": [
                {
                    "internalType": "address",
                    "name": "to",
                    "type": "address"
                },
                {
                    "internalType": "bool",
                    "name": "executed",
                    "type": "bool"
                },
                {
                    "internalType": "bytes",
                    "name": "data",
                    "type": "bytes"
                },
                {
                    "internalType": "uint256",
                    "name": "value",
                    "type": "uint256"
                },
                {
                    "internalType": "uint256",
                    "name": "numConfirmations",
                    "type": "uint256"
                },
                {
                    "internalType": "uint256",
                    "name": "expireTimestamp",
                    "type": "uint256"
                }
            ],
            "stateMutability": "view",
            "type": "function"
        },
        {
            "stateMutability": "payable",
            "type": "receive"
        },
        {
            "inputs": [
                {
                    "internalType": "address",
                    "name": "owner",
                    "type": "address"
                }
            ],
            "name": "removeOwner",
            "outputs": [],
            "stateMutability": "nonpayable",
            "type": "function"
        },
        {
            "inputs": [
                {
                    "internalType": "address[]",
                    "name": "_owners",
                    "type": "address[]"
                },
                {
                    "internalType": "uint256",
                    "name": "_newNumConfirmationsRequired",
                    "type": "uint256"
                }
            ],
            "name": "addOwners",
            "outputs": [],
            "stateMutability": "nonpayable",
            "type": "function"
        },
        {
            "inputs": [
                {
                    "internalType": "uint256",
                    "name": "_newNumConfirmationsRequired",
                    "type": "uint256"
                }
            ],
            "name": "changeRequirement",
            "outputs": [],
            "stateMutability": "nonpayable",
            "type": "function"
        },
        {
            "inputs": [
                {
                    "internalType": "address",
                    "name": "_to",
                    "type": "address"
                },
                {
                    "internalType": "uint256",
                    "name": "_value",
                    "type": "uint256"
                },
                {
                    "internalType": "bytes",
                    "name": "_data",
                    "type": "bytes"
                },
                {
                    "internalType": "uint256",
                    "name": "_lifetime",
                    "type": "uint256"
                }
            ],
            "name": "submitTransaction",
            "outputs": [],
            "stateMutability": "nonpayable",
            "type": "function"
        },
        {
            "inputs": [
                {
                    "internalType": "uint256",
                    "name": "_txIndex",
                    "type": "uint256"
                }
            ],
            "name": "confirmTransaction",
            "outputs": [],
            "stateMutability": "nonpayable",
            "type": "function"
        },
        {
            "inputs": [
                {
                    "internalType": "uint256",
                    "name": "_txIndex",
                    "type": "uint256"
                }
            ],
            "name": "executeTransaction",
            "outputs": [],
            "stateMutability": "nonpayable",
            "type": "function"
        },
        {
            "inputs": [
                {
                    "internalType": "uint256",
                    "name": "_txIndex",
                    "type": "uint256"
                }
            ],
            "name": "revokeConfirmation",
            "outputs": [],
            "stateMutability": "nonpayable",
            "type": "function"
        },
        {
            "inputs": [],
            "name": "getOwners",
            "outputs": [
                {
                    "internalType": "address[]",
                    "name": "",
                    "type": "address[]"
                }
            ],
            "stateMutability": "view",
            "type": "function"
        },
        {
            "inputs": [],
            "name": "getTransactionCount",
            "outputs": [
                {
                    "internalType": "uint256",
                    "name": "",
                    "type": "uint256"
                }
            ],
            "stateMutability": "view",
            "type": "function"
        },
        {
            "inputs": [
                {
                    "internalType": "uint256",
                    "name": "_txIndex",
                    "type": "uint256"
                }
            ],
            "name": "getTransaction",
            "outputs": [
                {
                    "internalType": "address",
                    "name": "to",
                    "type": "address"
                },
                {
                    "internalType": "uint256",
                    "name": "value",
                    "type": "uint256"
                },
                {
                    "internalType": "bytes",
                    "name": "data",
                    "type": "bytes"
                },
                {
                    "internalType": "bool",
                    "name": "executed",
                    "type": "bool"
                },
                {
                    "internalType": "uint256",
                    "name": "numConfirmations",
                    "type": "uint256"
                },
                {
                    "internalType": "uint256",
                    "name": "expireTimestamp",
                    "type": "uint256"
                }
            ],
            "stateMutability": "view",
            "type": "function"
        },
        {
            "inputs": [
                {
                    "internalType": "uint256",
                    "name": "_txIndex",
                    "type": "uint256"
                },
                {
                    "internalType": "address",
                    "name": "_owner",
                    "type": "address"
                }
            ],
            "name": "isConfirmedByOwner",
            "outputs": [
                {
                    "internalType": "bool",
                    "name": "",
                    "type": "bool"
                }
            ],
            "stateMutability": "view",
            "type": "function"
        }
    ],
    "bytecode": "0x60806040523480156200001157600080fd5b506040516200224c3803806200224c8339810160408190526200003491620003ea565b825162000042908362000073565b600080546001600160a01b0319166001600160a01b0383161790556200006883620000d0565b5060015550620004a6565b811580620000815750603282115b806200008c57508181115b80620000ad575060018211620000a65760008111620000ab565b600181115b155b15620000cc576040516327c97a1360e21b815260040160405180910390fd5b5050565b60005b8151811015620000cc576000828281518110620000f457620000f46200045d565b602002602001015190506200010f81620001a460201b60201c565b6200011a81620001cf565b6001600160a01b0381166000908152600260209081526040909120805460ff1916600117905562000159906005908390620011c46200020a821b17901c565b506040516001600160a01b038216907ff39e6e1eb0edcf53c221607b54b00cd28f3196fed0a24994dc308b8f611b682d90600090a250806200019b8162000489565b915050620000d3565b6001600160a01b038116620001cc5760405163f6b2911f60e01b815260040160405180910390fd5b50565b6001600160a01b03811660009081526002602052604090205460ff1615620001cc576040516355aeee3b60e01b815260040160405180910390fd5b600062000221836001600160a01b0384166200022a565b90505b92915050565b6000818152600183016020526040812054620002735750815460018181018455600084815260208082209093018490558454848252828601909352604090209190915562000224565b50600062000224565b634e487b7160e01b600052604160045260246000fd5b601f19601f83011681018181106001600160401b0382111715620002ba57620002ba6200027c565b6040525050565b6000620002cd60405190565b9050620002db828262000292565b919050565b60006001600160401b03821115620002fc57620002fc6200027c565b5060209081020190565b60006001600160a01b03821662000224565b620003238162000306565b8114620001cc57600080fd5b8051620002248162000318565b6000620003536200034d84620002e0565b620002c1565b83815290506020808201908402830185811115620003745762000374600080fd5b835b818110156200039c57806200038c88826200032f565b8452506020928301920162000376565b5050509392505050565b600082601f830112620003bc57620003bc600080fd5b8151620003ce8482602086016200033c565b949350505050565b8062000323565b80516200022481620003d6565b600080600060608486031215620004045762000404600080fd5b83516001600160401b038111156200041f576200041f600080fd5b6200042d86828701620003a6565b93505060206200044086828701620003dd565b925050604062000453868287016200032f565b9150509250925092565b634e487b7160e01b600052603260045260246000fd5b634e487b7160e01b600052601160045260246000fd5b600060001982036200049f576200049f62000473565b5060010190565b611d9680620004b66000396000f3fe6080604052600436106101185760003560e01c80637fcc53ee116100a0578063c01a8c8411610064578063c01a8c841461036e578063c80cd2dd1461038e578063d0549b85146103a4578063d74f8edd146103ba578063ee22610b146103cf57600080fd5b80637fcc53ee146102c35780639ace38c2146102da5780639d6b20c91461030c578063a0e67e2b1461032c578063ba51a6df1461034e57600080fd5b806320ea8d86116100e757806320ea8d861461020c5780632e7700f01461022c5780632f54bf6e1461024a57806333ea3dc81461027a57806352aca1aa146102ac57600080fd5b80630c340a24146101675780630d59b5641461019d57806312a9aa83146101bf578063173825d9146101ec57600080fd5b3661016257336001600160a01b03167f90890809c654f11d6e72a28fa60149770a0d11ec6c92319d6ceb2bb0a4ea1a153447604051610158929190611612565b60405180910390a2005b600080fd5b34801561017357600080fd5b50600054610187906001600160a01b031681565b6040516101949190611647565b60405180910390f35b3480156101a957600080fd5b506101bd6101b83660046116d7565b6103ef565b005b3480156101cb57600080fd5b506101df6101da36600461175b565b6106a9565b60405161019491906117a0565b3480156101f857600080fd5b506101bd6102073660046117ae565b6106d4565b34801561021857600080fd5b506101bd6102273660046117d7565b6107be565b34801561023857600080fd5b506003545b60405161019491906117f8565b34801561025657600080fd5b506101df6102653660046117ae565b60026020526000908152604090205460ff1681565b34801561028657600080fd5b5061029a6102953660046117d7565b6109c0565b6040516101949695949392919061185e565b3480156102b857600080fd5b5061023d624f1a0081565b3480156102cf57600080fd5b5061023d6201518081565b3480156102e657600080fd5b506102fa6102f53660046117d7565b610b09565b604051610194969594939291906118bf565b34801561031857600080fd5b506101bd610327366004611946565b610be8565b34801561033857600080fd5b50610341610c9c565b60405161019491906119fe565b34801561035a57600080fd5b506101bd6103693660046117d7565b610cad565b34801561037a57600080fd5b506101bd6103893660046117d7565b610d08565b34801561039a57600080fd5b5061023d60045481565b3480156103b057600080fd5b5061023d60015481565b3480156103c657600080fd5b5061023d603281565b3480156103db57600080fd5b506101bd6103ea3660046117d7565b610f24565b3360009081526002602052604090205460ff1615801561041a57506000546001600160a01b03163314155b15610438576040516354d2ab1f60e01b815260040160405180910390fd5b848484848080601f01602080910402602001604051908101604052809392919081815260200183838082843760009201919091525086925050620151808210905080156104855750600081115b156104a357604051631f67085960e11b815260040160405180910390fd5b624f1a008111156104c757604051631764777160e21b815260040160405180910390fd5b6001600160a01b0384163b610502576000825111806104e4575082155b15610502576040516321add58560e11b815260040160405180910390fd5b8247101561052357604051631e9acf1760e31b815260040160405180910390fd5b6000600380549050905060036040518060c001604052808c6001600160a01b031681526020016000151581526020018a8a8080601f0160208091040260200160405190810160405280939291908181526020018383808284376000920182905250938552505050602082018d9052604082015260600188156105ae576105a98942611a25565b6105b1565b60005b9052815460018181018455600093845260209384902083516005909302018054948401511515600160a01b026001600160a81b03199095166001600160a01b0390931692909217939093178155604082015191929091908201906106159082611b30565b50606082015160028201556080820151600382015560a0909101516004909101556001600160a01b038a16600081815260076020908152604080832085845290915290819020823f905551339083907fb7d255440cb386ffe845e52783c32a06625c034e8a0d98615481af247ed802c390610695908e908e908e90611c23565b60405180910390a450505050505050505050565b6001600160a01b03811660009081526008602052604081206106cb90846111d9565b90505b92915050565b3330146106f45760405163473a11d560e01b815260040160405180910390fd5b6001600160a01b038116600090815260026020526040902054819060ff1661072f5760405163ae4575cd60e01b815260040160405180910390fd5b6001600160a01b0382166000908152600260205260409020805460ff1916905561075a6005836111f1565b5060035460045561076b6005611206565b6001541115610786576107866107816005611206565b611210565b6040516001600160a01b038316907f8001553a916ef2f495d26a907cc54d96ed840d7bda71e73194bf5a9df7a76b9090600090a25050565b3360009081526002602052604090205460ff166107ee57604051635fc483c560e01b815260040160405180910390fd5b6003548190811061081257604051639e1b596f60e01b815260040160405180910390fd5b816004548110156108365760405163415b487560e11b815260040160405180910390fd5b826003818154811061084a5761084a611c4d565b6000918252602090912060059091020154600160a01b900460ff161561088357604051632ea945cf60e01b815260040160405180910390fd5b83426003828154811061089857610898611c4d565b9060005260206000209060050201600401541080156108dc5750600381815481106108c5576108c5611c4d565b906000526020600020906005020160040154600014155b156108fa5760405163d5498e8f60e01b815260040160405180910390fd5b60006003868154811061090f5761090f611c4d565b60009182526020808320338452600890915260409092206005909102909101915061093a90876111d9565b610957576040516333d36b7960e01b815260040160405180910390fd5b600181600301600082825461096c9190611c63565b909155505033600090815260086020526040902061098a9087611250565b50604051869033907ff0dca620e2e81f7841d07bcc105e1704fb01475b278a9d4c236e1c62945edd5590600090a3505050505050565b6000806060600080600080600388815481106109de576109de611c4d565b60009182526020918290206040805160c081018252600590930290910180546001600160a01b038116845260ff600160a01b9091041615159383019390935260018301805492939291840191610a3390611a64565b80601f0160208091040260200160405190810160405280929190818152602001828054610a5f90611a64565b8015610aac5780601f10610a8157610100808354040283529160200191610aac565b820191906000526020600020905b815481529060010190602001808311610a8f57829003601f168201915b5050505050815260200160028201548152602001600382015481526020016004820154815250509050806000015181606001518260400151836020015184608001518560a001519650965096509650965096505091939550919395565b60038181548110610b1957600080fd5b6000918252602090912060059091020180546001820180546001600160a01b0383169450600160a01b90920460ff169291610b5390611a64565b80601f0160208091040260200160405190810160405280929190818152602001828054610b7f90611a64565b8015610bcc5780601f10610ba157610100808354040283529160200191610bcc565b820191906000526020600020905b815481529060010190602001808311610baf57829003601f168201915b5050505050908060020154908060030154908060040154905086565b333014610c085760405163473a11d560e01b815260040160405180910390fd5b600154811015610c2b576040516327c97a1360e21b815260040160405180910390fd5b610c4982610c396005611206565b610c439190611a25565b8261125c565b610c858383808060200260200160405190810160405280939291908181526020018383602002808284376000920191909152506112b392505050565b6001548114610c9757610c9781611210565b505050565b6060610ca86005611365565b905090565b333014610ccd5760405163473a11d560e01b815260040160405180910390fd5b6001548103610cef576040516327c97a1360e21b815260040160405180910390fd5b610cfc610c436005611206565b610d0581611210565b50565b3360009081526002602052604090205460ff16610d3857604051635fc483c560e01b815260040160405180910390fd5b60035481908110610d5c57604051639e1b596f60e01b815260040160405180910390fd5b81600454811015610d805760405163415b487560e11b815260040160405180910390fd5b8260038181548110610d9457610d94611c4d565b6000918252602090912060059091020154600160a01b900460ff1615610dcd57604051632ea945cf60e01b815260040160405180910390fd5b3360009081526008602052604090208490610de890826111d9565b15610e065760405163276b851960e21b815260040160405180910390fd5b844260038281548110610e1b57610e1b611c4d565b906000526020600020906005020160040154108015610e5f575060038181548110610e4857610e48611c4d565b906000526020600020906005020160040154600014155b15610e7d5760405163d5498e8f60e01b815260040160405180910390fd5b600060038781548110610e9257610e92611c4d565b600091825260209091206005909102018054909150610eba906001600160a01b031688611379565b6001816003016000828254610ecf9190611a25565b9091555050336000908152600860205260409020610eed90886113bd565b50604051879033907f5cbe105e36805f7820e291f799d5794ff948af2a5f664e580382defb6339004190600090a350505050505050565b3360009081526002602052604090205460ff16158015610f4f57506000546001600160a01b03163314155b15610f6d576040516354d2ab1f60e01b815260040160405180910390fd5b60035481908110610f9157604051639e1b596f60e01b815260040160405180910390fd5b81600454811015610fb55760405163415b487560e11b815260040160405180910390fd5b8260038181548110610fc957610fc9611c4d565b6000918252602090912060059091020154600160a01b900460ff161561100257604051632ea945cf60e01b815260040160405180910390fd5b83426003828154811061101757611017611c4d565b90600052602060002090600502016004015410801561105b57506003818154811061104457611044611c4d565b906000526020600020906005020160040154600014155b156110795760405163d5498e8f60e01b815260040160405180910390fd5b60006003868154811061108e5761108e611c4d565b6000918252602090912060059091020180549091506110b6906001600160a01b031687611379565b600154816003015410156110dd576040516333d36b7960e01b815260040160405180910390fd5b805460ff60a01b198116600160a01b178255600282015460405160009283926001600160a01b0390911691611116906001870190611ce8565b60006040518083038185875af1925050503d8060008114611153576040519150601f19603f3d011682016040523d82523d6000602084013e611158565b606091505b5091509150811561119557604051889033907f5445f318f4f5fcfb66592e68e0cc5822aa15664039bd5f0ffde24c5a8142b1ac90600090a36111ba565b6111b882826040518060600160405280602b8152602001611d36602b91396113c9565b505b5050505050505050565b60006106cb836001600160a01b03841661140b565b600081815260018301602052604081205415156106cb565b60006106cb836001600160a01b03841661145a565b60006106ce825490565b60018190556040517fa3f1ee9126a074d9326c682f561767f710e927faa811f7a99829d49dc421797a906112459083906117f8565b60405180910390a150565b60006106cb838361145a565b8115806112695750603282115b8061127357508181115b8061129157506001821161128a576000811161128f565b600181115b155b156112af576040516327c97a1360e21b815260040160405180910390fd5b5050565b60005b81518110156112af5760008282815181106112d3576112d3611c4d565b602002602001015190506112e68161154d565b6112ef81611574565b6001600160a01b0381166000908152600260205260409020805460ff1916600117905561131d6005826111c4565b506040516001600160a01b038216907ff39e6e1eb0edcf53c221607b54b00cd28f3196fed0a24994dc308b8f611b682d90600090a2508061135d81611cf4565b9150506112b6565b60606000611372836115ae565b9392505050565b6001600160a01b0382166000818152600760209081526040808320858452909152902054903f146112af576040516308e6f66d60e21b815260040160405180910390fd5b60006106cb838361140b565b606083156113d8575081611372565b8251156113e85782518084602001fd5b8160405162461bcd60e51b81526004016114029190611d0e565b60405180910390fd5b6000818152600183016020526040812054611452575081546001818101845560008481526020808220909301849055845484825282860190935260409020919091556106ce565b5060006106ce565b6000818152600183016020526040812054801561154357600061147e600183611c63565b855490915060009061149290600190611c63565b90508181146114f75760008660000182815481106114b2576114b2611c4d565b90600052602060002001549050808760000184815481106114d5576114d5611c4d565b6000918252602080832090910192909255918252600188019052604090208390555b855486908061150857611508611d1f565b6001900381819060005260206000200160009055905585600101600086815260200190815260200160002060009055600193505050506106ce565b60009150506106ce565b6001600160a01b038116610d055760405163f6b2911f60e01b815260040160405180910390fd5b6001600160a01b03811660009081526002602052604090205460ff1615610d05576040516355aeee3b60e01b815260040160405180910390fd5b6060816000018054806020026020016040519081016040528092919081815260200182805480156115fe57602002820191906000526020600020905b8154815260200190600101908083116115ea575b50505050509050919050565b805b82525050565b60408101611620828561160a565b611372602083018461160a565b60006001600160a01b0382166106ce565b61160c8161162d565b602081016106ce828461163e565b61165e8161162d565b8114610d0557600080fd5b80356106ce81611655565b8061165e565b80356106ce81611674565b60008083601f84011261169a5761169a600080fd5b50813567ffffffffffffffff8111156116b5576116b5600080fd5b6020830191508360018202830111156116d0576116d0600080fd5b9250929050565b6000806000806000608086880312156116f2576116f2600080fd5b60006116fe8888611669565b955050602061170f8882890161167a565b945050604086013567ffffffffffffffff81111561172f5761172f600080fd5b61173b88828901611685565b9350935050606061174e8882890161167a565b9150509295509295909350565b6000806040838503121561177157611771600080fd5b600061177d858561167a565b925050602061178e85828601611669565b9150509250929050565b80151561160c565b602081016106ce8284611798565b6000602082840312156117c3576117c3600080fd5b60006117cf8484611669565b949350505050565b6000602082840312156117ec576117ec600080fd5b60006117cf848461167a565b602081016106ce828461160a565b60005b83811015611821578181015183820152602001611809565b50506000910152565b6000611834825190565b80845260208401935061184b818560208601611806565b601f19601f8201165b9093019392505050565b60c0810161186c828961163e565b611879602083018861160a565b818103604083015261188b818761182a565b905061189a6060830186611798565b6118a7608083018561160a565b6118b460a083018461160a565b979650505050505050565b60c081016118cd828961163e565b6118da6020830188611798565b81810360408301526118ec818761182a565b905061189a606083018661160a565b60008083601f84011261191057611910600080fd5b50813567ffffffffffffffff81111561192b5761192b600080fd5b6020830191508360208202830111156116d0576116d0600080fd5b60008060006040848603121561195e5761195e600080fd5b833567ffffffffffffffff81111561197857611978600080fd5b611984868287016118fb565b935093505060206119978682870161167a565b9150509250925092565b60006119ad838361163e565b505060200190565b60006119bf825190565b80845260209384019383018060005b838110156119f35781516119e288826119a1565b9750602083019250506001016119ce565b509495945050505050565b602080825281016106cb81846119b5565b634e487b7160e01b600052601160045260246000fd5b808201808211156106ce576106ce611a0f565b634e487b7160e01b600052604160045260246000fd5b634e487b7160e01b600052602260045260246000fd5b600281046001821680611a7857607f821691505b602082108103611a8a57611a8a611a4e565b50919050565b60006106ce611a9c8381565b90565b611aa883611a90565b81546008840282811b60001990911b908116901990911617825550505050565b6000610c97818484611a9f565b818110156112af57611ae8600082611ac8565b600101611ad5565b601f821115610c97576000818152602090206020601f85010481016020851015611b175750805b611b296020601f860104830182611ad5565b5050505050565b815167ffffffffffffffff811115611b4a57611b4a611a38565b611b548254611a64565b611b5f828285611af0565b6020601f831160018114611b935760008415611b7b5750858201515b600019600886021c1981166002860217865550611bec565b600085815260208120601f198616915b82811015611bc35788850151825560209485019460019092019101611ba3565b86831015611bdf5784890151600019601f89166008021c191682555b6001600288020188555050505b505050505050565b82818337506000910152565b8183526000602084019350611c16838584611bf4565b601f19601f840116611854565b60408101611c31828661160a565b8181036020830152611c44818486611c00565b95945050505050565b634e487b7160e01b600052603260045260246000fd5b818103818111156106ce576106ce611a0f565b60008154611c8381611a64565b600182168015611c9a5760018114611caf57611cdf565b60ff1983168652811515820286019350611cdf565b60008581526020902060005b83811015611cd757815488820152600190910190602001611cbb565b838801955050505b50505092915050565b60006113728284611c76565b60006000198203611d0757611d07611a0f565b5060010190565b602080825281016106cb818461182a565b634e487b7160e01b600052603160045260246000fdfe657865637574655472616e73616374696f6e3a20726576657274656420776974686f757420726561736f6ea2646970667358221220a090c6860cf72bd66e2db564f19b72f36ebcf49631af9618097d64c16240a75264736f6c63430008100033",
    "immutableReferences": {},
    "source": "// SPDX-License-Identifier: MIT\n// Copyright Fathom 2022\n\npragma solidity 0.8.16;\n\nimport \"./interfaces/IMultiSigWallet.sol\";\nimport \"../../common/Address.sol\";\nimport \"@openzeppelin/contracts/utils/structs/EnumerableMap.sol\";\nimport \"@openzeppelin/contracts/utils/structs/EnumerableSet.sol\";\n\n// solhint-disable not-rely-on-time\ncontract MultiSigWallet is IMultiSigWallet {\n    using Address for address;\n    using EnumerableSet for EnumerableSet.UintSet;\n    using EnumerableSet for EnumerableSet.AddressSet;\n\n    struct Transaction {\n        address to;\n        bool executed;\n        bytes data;\n        uint256 value;\n        uint256 numConfirmations;\n        uint256 expireTimestamp;\n    }\n\n    address public governor;\n    uint256 public numConfirmationsRequired;\n    mapping(address => bool) public isOwner;\n    Transaction[] public transactions;\n    uint256 public firstValidTransactionIndexAfterOwnerRemoval;\n\n    EnumerableSet.AddressSet internal owners;\n    mapping(address => mapping(uint256 => bytes32)) internal allowlistedBytesCode;\n    mapping(address => EnumerableSet.UintSet) internal confirmedTransactionsByOwner;\n\n    uint256 public constant MINIMUM_LIFETIME = 86400; //oneDay\n    //Most common used lifetime is 30 days, Maximum lifetime is 60 days which allows for more complex transactions to proceed with ample time\n    uint256 public constant MAXIMUM_LIFETIME = 60 * 86400; //60Days\n    uint256 public constant MAX_OWNER_COUNT = 50;\n\n    error TxDoesNotExist();\n    error TxAlreadyExecuted();\n    error TxAlreadyConfirmed();\n    error TxExpired();\n    error OnlyOwnerOrGov();\n    error OnlyOwner();\n    error InvalidRequirement();\n    error OwnerNotFound();\n    error LifetimeMinimumNotMet();\n    error InsufficientBalance();\n    error InsufficientValueOrBadCalldata();\n    error TargetCodeChanged();\n    error ExistingOwner();\n    error TxNotConfirmed();\n    error OnlyWallet();\n    error LifetimeMaximumExceeded();\n    error TxNotValidBecauseOwnerWasRemoved();\n    error InvalidZeroAddress();\n\n    modifier onlyOwnerOrGov() {\n        if (!isOwner[msg.sender] && governor != msg.sender) {\n            revert OnlyOwnerOrGov();\n        }\n        _;\n    }\n\n    modifier onlyOwner() {\n        if (!isOwner[msg.sender]) {\n            revert OnlyOwner();\n        }\n        _;\n    }\n\n    modifier txExists(uint256 _txIndex) {\n        if (_txIndex >= transactions.length) {\n            revert TxDoesNotExist();\n        }\n        _;\n    }\n\n    modifier txIndexGoesAfterLastOwnerRemoval(uint256 _txIndex) {\n        if (_txIndex < firstValidTransactionIndexAfterOwnerRemoval) {\n            revert TxNotValidBecauseOwnerWasRemoved();\n        }\n        _;\n    }\n\n    modifier notExecuted(uint256 _txIndex) {\n        if (transactions[_txIndex].executed) {\n            revert TxAlreadyExecuted();\n        }\n        _;\n    }\n\n    modifier notConfirmed(uint256 _txIndex) {\n        if (confirmedTransactionsByOwner[msg.sender].contains(_txIndex)) {\n            revert TxAlreadyConfirmed();\n        }\n        _;\n    }\n\n    modifier notExpired(uint256 _txIndex) {\n        if (transactions[_txIndex].expireTimestamp < block.timestamp && transactions[_txIndex].expireTimestamp != 0) {\n            revert TxExpired();\n        }\n        _;\n    }\n\n    modifier onlyWallet() {\n        if (msg.sender != address(this)) {\n            revert OnlyWallet();\n        }\n        _;\n    }\n\n    modifier ownerExists(address owner) {\n        if (!isOwner[owner]) {\n            revert OwnerNotFound();\n        }\n        _;\n    }\n\n    modifier validateSubmitTxInputs(\n        address _to,\n        uint256 _value,\n        bytes memory _data,\n        uint256 _lifetime\n    ) {\n        if (_lifetime < MINIMUM_LIFETIME && _lifetime > 0) {\n            revert LifetimeMinimumNotMet();\n        }\n\n        if (_lifetime > MAXIMUM_LIFETIME) {\n            revert LifetimeMaximumExceeded();\n        }\n\n        if (!_to.isContract()) {\n            if (_data.length > 0 || _value == 0) {\n                revert InsufficientValueOrBadCalldata();\n            }\n        }\n        if (address(this).balance < _value) {\n            revert InsufficientBalance();\n        }\n        _;\n    }\n\n    constructor(address[] memory _owners, uint256 _numConfirmationsRequired, address _governor) {\n        _validRequirement(_owners.length, _numConfirmationsRequired);\n\n        governor = _governor;\n\n        _addOwners(_owners);\n\n        numConfirmationsRequired = _numConfirmationsRequired;\n    }\n\n    receive() external payable override {\n        emit Deposit(msg.sender, msg.value, address(this).balance);\n    }\n\n    function removeOwner(address owner) external override onlyWallet ownerExists(owner) {\n        isOwner[owner] = false;\n        owners.remove(owner);\n\n        // Remove the previous statistic of transactions confirmations.\n        firstValidTransactionIndexAfterOwnerRemoval = transactions.length;\n\n        if (numConfirmationsRequired > owners.length()) _changeRequirement(owners.length());\n\n        emit OwnerRemoval(owner);\n    }\n\n    function addOwners(address[] calldata _owners, uint256 _newNumConfirmationsRequired) external override onlyWallet {\n        if (_newNumConfirmationsRequired < numConfirmationsRequired) {\n            revert InvalidRequirement();\n        }\n        _validRequirement(owners.length() + _owners.length, _newNumConfirmationsRequired);\n\n        _addOwners(_owners);\n        if (_newNumConfirmationsRequired != numConfirmationsRequired) _changeRequirement(_newNumConfirmationsRequired);\n    }\n\n    function changeRequirement(uint256 _newNumConfirmationsRequired) external override onlyWallet {\n        if (_newNumConfirmationsRequired == numConfirmationsRequired) {\n            revert InvalidRequirement();\n        }\n        _validRequirement(owners.length(), _newNumConfirmationsRequired);\n\n        _changeRequirement(_newNumConfirmationsRequired);\n    }\n\n    function submitTransaction(\n        address _to,\n        uint256 _value,\n        bytes calldata _data,\n        uint256 _lifetime\n    ) external override onlyOwnerOrGov validateSubmitTxInputs(_to, _value, _data, _lifetime) {\n        uint256 txIndex = transactions.length;\n        transactions.push(\n            Transaction({\n                to: _to,\n                value: _value,\n                data: _data,\n                executed: false,\n                numConfirmations: 0,\n                expireTimestamp: _lifetime == 0 ? 0 : block.timestamp + _lifetime\n            })\n        );\n\n        allowlistedBytesCode[_to][txIndex] = _to.getExtCodeHash();\n\n        emit SubmitTransaction(txIndex, msg.sender, _to, _value, _data);\n    }\n\n    function confirmTransaction(\n        uint256 _txIndex\n    )\n        external\n        override\n        onlyOwner\n        txExists(_txIndex)\n        txIndexGoesAfterLastOwnerRemoval(_txIndex)\n        notExecuted(_txIndex)\n        notConfirmed(_txIndex)\n        notExpired(_txIndex)\n    {\n        Transaction storage transaction = transactions[_txIndex];\n\n        _requireTargetCodeNotChanged(transaction.to, _txIndex);\n\n        transaction.numConfirmations += 1;\n        confirmedTransactionsByOwner[msg.sender].add(_txIndex);\n\n        emit ConfirmTransaction(msg.sender, _txIndex);\n    }\n\n    function executeTransaction(\n        uint256 _txIndex\n    ) external override onlyOwnerOrGov txExists(_txIndex) txIndexGoesAfterLastOwnerRemoval(_txIndex) notExecuted(_txIndex) notExpired(_txIndex) {\n        Transaction storage transaction = transactions[_txIndex];\n\n        _requireTargetCodeNotChanged(transaction.to, _txIndex);\n\n        if (transaction.numConfirmations < numConfirmationsRequired) {\n            revert TxNotConfirmed();\n        }\n\n        transaction.executed = true;\n\n        (bool success, bytes memory data) = transaction.to.call{ value: transaction.value }(transaction.data);\n\n        if (success) {\n            emit ExecuteTransaction(msg.sender, _txIndex);\n        } else {\n            Address.verifyCallResult(success, data, \"executeTransaction: reverted without reason\");\n        }\n    }\n\n    function revokeConfirmation(\n        uint256 _txIndex\n    ) external override onlyOwner txExists(_txIndex) txIndexGoesAfterLastOwnerRemoval(_txIndex) notExecuted(_txIndex) notExpired(_txIndex) {\n        Transaction storage transaction = transactions[_txIndex];\n\n        if (!confirmedTransactionsByOwner[msg.sender].contains(_txIndex)) {\n            revert TxNotConfirmed();\n        }\n\n        transaction.numConfirmations -= 1;\n        confirmedTransactionsByOwner[msg.sender].remove(_txIndex);\n        emit RevokeConfirmation(msg.sender, _txIndex);\n    }\n\n    function getOwners() external view override returns (address[] memory) {\n        return owners.values();\n    }\n\n    function getTransactionCount() external view override returns (uint256) {\n        return transactions.length;\n    }\n\n    function getTransaction(\n        uint256 _txIndex\n    )\n        external\n        view\n        override\n        returns (address to, uint256 value, bytes memory data, bool executed, uint256 numConfirmations, uint256 expireTimestamp)\n    {\n        Transaction memory transaction = transactions[_txIndex];\n\n        return (transaction.to, transaction.value, transaction.data, transaction.executed, transaction.numConfirmations, transaction.expireTimestamp);\n    }\n\n    function isConfirmedByOwner(uint256 _txIndex, address _owner) external view override returns (bool) {\n        return confirmedTransactionsByOwner[_owner].contains(_txIndex);\n    }\n\n    function _changeRequirement(uint256 _required) internal {\n        numConfirmationsRequired = _required;\n        emit RequirementChange(_required);\n    }\n\n    function _addOwners(address[] memory _owners) internal {\n        for (uint256 i = 0; i < _owners.length; i++) {\n            address owner = _owners[i];\n\n            _notZeroAddress(owner);\n            _requireNotOwner(owner);\n\n            isOwner[owner] = true;\n            owners.add(owner);\n            emit OwnerAddition(owner);\n        }\n    }\n\n    function _requireNotOwner(address owner) internal view {\n        if (isOwner[owner]) {\n            revert ExistingOwner();\n        }\n    }\n\n    function _requireTargetCodeNotChanged(address target, uint256 txIndex) internal view {\n        if (allowlistedBytesCode[target][txIndex] != target.getExtCodeHash()) {\n            revert TargetCodeChanged();\n        }\n    }\n\n    function _validRequirement(uint256 ownerCount, uint256 _required) internal pure {\n        // if owners count more than 1, then required should be more than 1 - it will protect from centralization\n        if (ownerCount == 0 || ownerCount > MAX_OWNER_COUNT || _required > ownerCount || !(ownerCount > 1 ? _required > 1 : _required > 0)) {\n            revert InvalidRequirement();\n        }\n    }\n\n    function _notZeroAddress(address _address) internal pure {\n        if (_address == address(0)) {\n            revert InvalidZeroAddress();\n        }\n    }\n}\n",
    "sourcePath": "/Users/antongrigorev/Developer/fathom-dao-smart-contracts/contracts/dao/treasury/MultiSigWallet.sol",
    "compiler": {
        "name": "solc",
        "version": "0.8.16+commit.07a7930e.Darwin.appleclang"
    },
    "schemaVersion": "3.4.13",
    "updatedAt": "2023-04-29T06:38:40.781Z",
    "devdoc": {
        "kind": "dev",
        "methods": {},
        "version": 1
    },
    "userdoc": {
        "kind": "user",
        "methods": {},
        "version": 1
    }
}