{
  "contractName": "FathomStablecoinProxyActions",
  "abi": [
    {
      "anonymous": false,
      "inputs": [
        {
          "indexed": false,
          "internalType": "address",
          "name": "_positionAddress",
          "type": "address"
        },
        {
          "indexed": false,
          "internalType": "uint256",
          "name": "_FXDBorrowAmount",
          "type": "uint256"
        }
      ],
      "name": "LogBorrowedAmount",
      "type": "event"
    },
    {
      "anonymous": false,
      "inputs": [
        {
          "indexed": false,
          "internalType": "address",
          "name": "_positionAddress",
          "type": "address"
        },
        {
          "indexed": false,
          "internalType": "uint256",
          "name": "_FXDPaidAmount",
          "type": "uint256"
        }
      ],
      "name": "LogPaidAmount",
      "type": "event"
    },
    {
      "inputs": [
        {
          "internalType": "address",
          "name": "_bookKeeper",
          "type": "address"
        },
        {
          "internalType": "address",
          "name": "_usr",
          "type": "address"
        }
      ],
      "name": "addToWhitelist",
      "outputs": [],
      "stateMutability": "nonpayable",
      "type": "function"
    },
    {
      "inputs": [
        {
          "internalType": "address",
          "name": "_bookKeeper",
          "type": "address"
        },
        {
          "internalType": "address",
          "name": "_usr",
          "type": "address"
        }
      ],
      "name": "removeFromWhitelist",
      "outputs": [],
      "stateMutability": "nonpayable",
      "type": "function"
    },
    {
      "inputs": [
        {
          "internalType": "address",
          "name": "_manager",
          "type": "address"
        },
        {
          "internalType": "uint256",
          "name": "_positionId",
          "type": "uint256"
        },
        {
          "internalType": "address",
          "name": "_user",
          "type": "address"
        },
        {
          "internalType": "bool",
          "name": "_ok",
          "type": "bool"
        }
      ],
      "name": "allowManagePosition",
      "outputs": [],
      "stateMutability": "nonpayable",
      "type": "function"
    },
    {
      "inputs": [
        {
          "internalType": "address",
          "name": "_manager",
          "type": "address"
        },
        {
          "internalType": "address",
          "name": "_user",
          "type": "address"
        },
        {
          "internalType": "bool",
          "name": "_ok",
          "type": "bool"
        }
      ],
      "name": "allowMigratePosition",
      "outputs": [],
      "stateMutability": "nonpayable",
      "type": "function"
    },
    {
      "inputs": [
        {
          "internalType": "address",
          "name": "_manager",
          "type": "address"
        },
        {
          "internalType": "uint256",
          "name": "_positionId",
          "type": "uint256"
        },
        {
          "internalType": "address",
          "name": "_destination",
          "type": "address"
        }
      ],
      "name": "exportPosition",
      "outputs": [],
      "stateMutability": "nonpayable",
      "type": "function"
    },
    {
      "inputs": [
        {
          "internalType": "address",
          "name": "_manager",
          "type": "address"
        },
        {
          "internalType": "address",
          "name": "_source",
          "type": "address"
        },
        {
          "internalType": "uint256",
          "name": "_positionId",
          "type": "uint256"
        }
      ],
      "name": "importPosition",
      "outputs": [],
      "stateMutability": "nonpayable",
      "type": "function"
    },
    {
      "inputs": [
        {
          "internalType": "address",
          "name": "_manager",
          "type": "address"
        },
        {
          "internalType": "uint256",
          "name": "_source",
          "type": "uint256"
        },
        {
          "internalType": "uint256",
          "name": "_destination",
          "type": "uint256"
        }
      ],
      "name": "movePosition",
      "outputs": [],
      "stateMutability": "nonpayable",
      "type": "function"
    },
    {
      "inputs": [
        {
          "internalType": "address",
          "name": "_manager",
          "type": "address"
        },
        {
          "internalType": "address",
          "name": "_xdcAdapter",
          "type": "address"
        },
        {
          "internalType": "uint256",
          "name": "_positionId",
          "type": "uint256"
        },
        {
          "internalType": "address",
          "name": "_owner",
          "type": "address"
        },
        {
          "internalType": "bytes",
          "name": "_data",
          "type": "bytes"
        }
      ],
      "name": "safeLockXDC",
      "outputs": [],
      "stateMutability": "payable",
      "type": "function"
    },
    {
      "inputs": [
        {
          "internalType": "address",
          "name": "_manager",
          "type": "address"
        },
        {
          "internalType": "address",
          "name": "_stabilityFeeCollector",
          "type": "address"
        },
        {
          "internalType": "address",
          "name": "_stablecoinAdapter",
          "type": "address"
        },
        {
          "internalType": "uint256",
          "name": "_positionId",
          "type": "uint256"
        },
        {
          "internalType": "uint256",
          "name": "_amount",
          "type": "uint256"
        },
        {
          "internalType": "bytes",
          "name": "_data",
          "type": "bytes"
        }
      ],
      "name": "draw",
      "outputs": [],
      "stateMutability": "nonpayable",
      "type": "function"
    },
    {
      "inputs": [
        {
          "internalType": "address",
          "name": "_manager",
          "type": "address"
        },
        {
          "internalType": "address",
          "name": "_stabilityFeeCollector",
          "type": "address"
        },
        {
          "internalType": "address",
          "name": "_xdcAdapter",
          "type": "address"
        },
        {
          "internalType": "address",
          "name": "_stablecoinAdapter",
          "type": "address"
        },
        {
          "internalType": "bytes32",
          "name": "_collateralPoolId",
          "type": "bytes32"
        },
        {
          "internalType": "uint256",
          "name": "_stablecoinAmount",
          "type": "uint256"
        },
        {
          "internalType": "bytes",
          "name": "_data",
          "type": "bytes"
        }
      ],
      "name": "openLockXDCAndDraw",
      "outputs": [
        {
          "internalType": "uint256",
          "name": "_positionId",
          "type": "uint256"
        }
      ],
      "stateMutability": "payable",
      "type": "function"
    },
    {
      "inputs": [
        {
          "internalType": "address",
          "name": "_manager",
          "type": "address"
        },
        {
          "internalType": "address",
          "name": "_xdcAdapter",
          "type": "address"
        },
        {
          "internalType": "address",
          "name": "_stablecoinAdapter",
          "type": "address"
        },
        {
          "internalType": "uint256",
          "name": "_positionId",
          "type": "uint256"
        },
        {
          "internalType": "uint256",
          "name": "_collateralAmount",
          "type": "uint256"
        },
        {
          "internalType": "uint256",
          "name": "_stablecoinAmount",
          "type": "uint256"
        },
        {
          "internalType": "bytes",
          "name": "_data",
          "type": "bytes"
        }
      ],
      "name": "wipeAndUnlockXDC",
      "outputs": [],
      "stateMutability": "nonpayable",
      "type": "function"
    },
    {
      "inputs": [
        {
          "internalType": "address",
          "name": "_manager",
          "type": "address"
        },
        {
          "internalType": "address",
          "name": "_xdcAdapter",
          "type": "address"
        },
        {
          "internalType": "address",
          "name": "_stablecoinAdapter",
          "type": "address"
        },
        {
          "internalType": "uint256",
          "name": "_positionId",
          "type": "uint256"
        },
        {
          "internalType": "uint256",
          "name": "_collateralAmount",
          "type": "uint256"
        },
        {
          "internalType": "bytes",
          "name": "_data",
          "type": "bytes"
        }
      ],
      "name": "wipeAllAndUnlockXDC",
      "outputs": [],
      "stateMutability": "nonpayable",
      "type": "function"
    },
    {
      "inputs": [
        {
          "internalType": "address",
          "name": "_manager",
          "type": "address"
        },
        {
          "internalType": "uint256",
          "name": "_positionId",
          "type": "uint256"
        },
        {
          "internalType": "bytes",
          "name": "_data",
          "type": "bytes"
        }
      ],
      "name": "redeemLockedCollateral",
      "outputs": [],
      "stateMutability": "nonpayable",
      "type": "function"
    },
    {
      "inputs": [
        {
          "internalType": "address",
          "name": "_adapter",
          "type": "address"
        },
        {
          "internalType": "address",
          "name": "_to",
          "type": "address"
        }
      ],
      "name": "emergencyWithdraw",
      "outputs": [],
      "stateMutability": "nonpayable",
      "type": "function"
    },
    {
      "inputs": [
        {
          "internalType": "address",
          "name": "_adapter",
          "type": "address"
        },
        {
          "internalType": "address",
          "name": "_positionAddress",
          "type": "address"
        },
        {
          "internalType": "uint256",
          "name": "_stablecoinAmount",
          "type": "uint256"
        },
        {
          "internalType": "bytes",
          "name": "_data",
          "type": "bytes"
        }
      ],
      "name": "stablecoinAdapterDeposit",
      "outputs": [],
      "stateMutability": "nonpayable",
      "type": "function"
    },
    {
      "inputs": [
        {
          "internalType": "address",
          "name": "_adapter",
          "type": "address"
        },
        {
          "internalType": "address",
          "name": "_positionAddress",
          "type": "address"
        },
        {
          "internalType": "bytes",
          "name": "_data",
          "type": "bytes"
        }
      ],
      "name": "xdcAdapterDeposit",
      "outputs": [],
      "stateMutability": "payable",
      "type": "function"
    },
    {
      "inputs": [
        {
          "internalType": "address",
          "name": "_adapter",
          "type": "address"
        },
        {
          "internalType": "address",
          "name": "_positionAddress",
          "type": "address"
        },
        {
          "internalType": "uint256",
          "name": "_amount",
          "type": "uint256"
        },
        {
          "internalType": "bool",
          "name": "_transferFrom",
          "type": "bool"
        },
        {
          "internalType": "bytes",
          "name": "_data",
          "type": "bytes"
        }
      ],
      "name": "tokenAdapterDeposit",
      "outputs": [],
      "stateMutability": "nonpayable",
      "type": "function"
    },
    {
      "inputs": [
        {
          "internalType": "address",
          "name": "_collateralToken",
          "type": "address"
        },
        {
          "internalType": "address",
          "name": "_dst",
          "type": "address"
        },
        {
          "internalType": "uint256",
          "name": "_amt",
          "type": "uint256"
        }
      ],
      "name": "transfer",
      "outputs": [],
      "stateMutability": "nonpayable",
      "type": "function"
    },
    {
      "inputs": [
        {
          "internalType": "address",
          "name": "_manager",
          "type": "address"
        },
        {
          "internalType": "bytes32",
          "name": "_collateralPoolId",
          "type": "bytes32"
        },
        {
          "internalType": "address",
          "name": "_usr",
          "type": "address"
        }
      ],
      "name": "open",
      "outputs": [
        {
          "internalType": "uint256",
          "name": "_positionId",
          "type": "uint256"
        }
      ],
      "stateMutability": "nonpayable",
      "type": "function"
    },
    {
      "inputs": [
        {
          "internalType": "address",
          "name": "_manager",
          "type": "address"
        },
        {
          "internalType": "uint256",
          "name": "_positionId",
          "type": "uint256"
        },
        {
          "internalType": "address",
          "name": "_usr",
          "type": "address"
        }
      ],
      "name": "transferOwnership",
      "outputs": [],
      "stateMutability": "nonpayable",
      "type": "function"
    },
    {
      "inputs": [
        {
          "internalType": "address",
          "name": "_manager",
          "type": "address"
        },
        {
          "internalType": "uint256",
          "name": "_positionId",
          "type": "uint256"
        },
        {
          "internalType": "int256",
          "name": "_collateralValue",
          "type": "int256"
        },
        {
          "internalType": "int256",
          "name": "_debtShare",
          "type": "int256"
        },
        {
          "internalType": "bytes",
          "name": "_data",
          "type": "bytes"
        }
      ],
      "name": "adjustPosition",
      "outputs": [],
      "stateMutability": "nonpayable",
      "type": "function"
    },
    {
      "inputs": [
        {
          "internalType": "address",
          "name": "_manager",
          "type": "address"
        },
        {
          "internalType": "uint256",
          "name": "_positionId",
          "type": "uint256"
        },
        {
          "internalType": "address",
          "name": "_dst",
          "type": "address"
        },
        {
          "internalType": "uint256",
          "name": "_collateralAmount",
          "type": "uint256"
        },
        {
          "internalType": "bytes",
          "name": "_data",
          "type": "bytes"
        }
      ],
      "name": "moveCollateral",
      "outputs": [],
      "stateMutability": "nonpayable",
      "type": "function"
    },
    {
      "inputs": [
        {
          "internalType": "address",
          "name": "_manager",
          "type": "address"
        },
        {
          "internalType": "uint256",
          "name": "_positionId",
          "type": "uint256"
        },
        {
          "internalType": "address",
          "name": "_dst",
          "type": "address"
        },
        {
          "internalType": "uint256",
          "name": "_stablecoinValue",
          "type": "uint256"
        }
      ],
      "name": "moveStablecoin",
      "outputs": [],
      "stateMutability": "nonpayable",
      "type": "function"
    },
    {
      "inputs": [
        {
          "internalType": "address",
          "name": "_manager",
          "type": "address"
        },
        {
          "internalType": "address",
          "name": "_xdcAdapter",
          "type": "address"
        },
        {
          "internalType": "uint256",
          "name": "_positionId",
          "type": "uint256"
        },
        {
          "internalType": "bytes",
          "name": "_data",
          "type": "bytes"
        }
      ],
      "name": "lockXDC",
      "outputs": [],
      "stateMutability": "payable",
      "type": "function"
    },
    {
      "inputs": [
        {
          "internalType": "address",
          "name": "_manager",
          "type": "address"
        },
        {
          "internalType": "address",
          "name": "_stabilityFeeCollector",
          "type": "address"
        },
        {
          "internalType": "address",
          "name": "_xdcAdapter",
          "type": "address"
        },
        {
          "internalType": "address",
          "name": "_stablecoinAdapter",
          "type": "address"
        },
        {
          "internalType": "uint256",
          "name": "_positionId",
          "type": "uint256"
        },
        {
          "internalType": "uint256",
          "name": "_stablecoinAmount",
          "type": "uint256"
        },
        {
          "internalType": "bytes",
          "name": "_data",
          "type": "bytes"
        }
      ],
      "name": "lockXDCAndDraw",
      "outputs": [],
      "stateMutability": "payable",
      "type": "function"
    },
    {
      "inputs": [
        {
          "internalType": "address",
          "name": "_manager",
          "type": "address"
        },
        {
          "internalType": "address",
          "name": "_tokenAdapter",
          "type": "address"
        },
        {
          "internalType": "uint256",
          "name": "_positionId",
          "type": "uint256"
        },
        {
          "internalType": "uint256",
          "name": "_collateralAmount",
          "type": "uint256"
        },
        {
          "internalType": "bool",
          "name": "_transferFrom",
          "type": "bool"
        },
        {
          "internalType": "bytes",
          "name": "_data",
          "type": "bytes"
        }
      ],
      "name": "lockToken",
      "outputs": [],
      "stateMutability": "nonpayable",
      "type": "function"
    },
    {
      "inputs": [
        {
          "internalType": "contract IManager",
          "name": "_manager",
          "type": "address"
        },
        {
          "internalType": "address",
          "name": "_stabilityFeeCollector",
          "type": "address"
        },
        {
          "internalType": "address",
          "name": "_tokenAdapter",
          "type": "address"
        },
        {
          "internalType": "address",
          "name": "_stablecoinAdapter",
          "type": "address"
        },
        {
          "internalType": "uint256",
          "name": "_positionId",
          "type": "uint256"
        },
        {
          "internalType": "uint256",
          "name": "_collateralAmount",
          "type": "uint256"
        },
        {
          "internalType": "uint256",
          "name": "_stablecoinAmount",
          "type": "uint256"
        },
        {
          "internalType": "bool",
          "name": "_transferFrom",
          "type": "bool"
        },
        {
          "internalType": "bytes",
          "name": "_data",
          "type": "bytes"
        }
      ],
      "name": "lockTokenAndDraw",
      "outputs": [],
      "stateMutability": "nonpayable",
      "type": "function"
    },
    {
      "inputs": [
        {
          "internalType": "address",
          "name": "_manager",
          "type": "address"
        },
        {
          "internalType": "address",
          "name": "_stabilityFeeCollector",
          "type": "address"
        },
        {
          "internalType": "address",
          "name": "_tokenAdapter",
          "type": "address"
        },
        {
          "internalType": "address",
          "name": "_stablecoinAdapter",
          "type": "address"
        },
        {
          "internalType": "bytes32",
          "name": "_collateralPoolId",
          "type": "bytes32"
        },
        {
          "internalType": "uint256",
          "name": "_collateralAmount",
          "type": "uint256"
        },
        {
          "internalType": "uint256",
          "name": "_stablecoinAmount",
          "type": "uint256"
        },
        {
          "internalType": "bool",
          "name": "_transferFrom",
          "type": "bool"
        },
        {
          "internalType": "bytes",
          "name": "_data",
          "type": "bytes"
        }
      ],
      "name": "openLockTokenAndDraw",
      "outputs": [
        {
          "internalType": "uint256",
          "name": "_positionId",
          "type": "uint256"
        }
      ],
      "stateMutability": "nonpayable",
      "type": "function"
    },
    {
      "inputs": [
        {
          "internalType": "address",
          "name": "_manager",
          "type": "address"
        },
        {
          "internalType": "address",
          "name": "_tokenAdapter",
          "type": "address"
        },
        {
          "internalType": "address",
          "name": "_stablecoinAdapter",
          "type": "address"
        },
        {
          "internalType": "uint256",
          "name": "_positionId",
          "type": "uint256"
        },
        {
          "internalType": "uint256",
          "name": "_collateralAmount",
          "type": "uint256"
        },
        {
          "internalType": "uint256",
          "name": "_stablecoinAmount",
          "type": "uint256"
        },
        {
          "internalType": "bytes",
          "name": "_data",
          "type": "bytes"
        }
      ],
      "name": "wipeAndUnlockToken",
      "outputs": [],
      "stateMutability": "nonpayable",
      "type": "function"
    },
    {
      "inputs": [
        {
          "internalType": "address",
          "name": "_manager",
          "type": "address"
        },
        {
          "internalType": "address",
          "name": "_tokenAdapter",
          "type": "address"
        },
        {
          "internalType": "address",
          "name": "_stablecoinAdapter",
          "type": "address"
        },
        {
          "internalType": "uint256",
          "name": "_positionId",
          "type": "uint256"
        },
        {
          "internalType": "uint256",
          "name": "_collateralAmount",
          "type": "uint256"
        },
        {
          "internalType": "bytes",
          "name": "_data",
          "type": "bytes"
        }
      ],
      "name": "wipeAllAndUnlockToken",
      "outputs": [],
      "stateMutability": "nonpayable",
      "type": "function"
    }
  ],
  "bytecode": "0x60a06040523060805234801561001457600080fd5b506080516147036100fb6000396000818161056f01528181610612015281816106e00152818161077e015281816108f001528181610c6801528181610ccb01528181610d5801528181610e7f01528181610f2401528181610f870152818161130e015281816113be0152818161142701528181611588015281816115e6015281816119f901528181611a5b01528181611ac501528181611e4101528181611eaa01528181611f1101528181611f7b01528181611fc9015281816124030152818161294b01528181612cd401528181612d9401528181612e060152612e6901526147036000f3fe6080604052600436106101cd5760003560e01c8063916a8ae1116100f7578063beabacc811610095578063d8efea2411610064578063d8efea24146104f2578063ebd3b00114610512578063f8d3277d14610532578063fd7039031461055257600080fd5b8063beabacc814610472578063cb77334d14610492578063ce4af695146104b2578063cf588ca0146104d257600080fd5b8063a02ce94d116100d1578063a02ce94d146103f2578063a341fab114610412578063ac48198c14610432578063b7c9836b1461045257600080fd5b8063916a8ae11461039257806399ea511e146103b25780639a4e5020146103d257600080fd5b80635c648c2b1161016f5780636aa3ee111161013e5780636aa3ee111461030d5780636b971f531461033f5780638889d0f41461035f57806388e234dd1461037f57600080fd5b80635c648c2b1461029a578063602fe0f6146102ba5780636382d9ad146102da578063651d4b6a146102fa57600080fd5b8063259d4649116101ab578063259d4649146102275780633c5500c81461023a57806342f059ee1461025a578063575182431461027a57600080fd5b80630a65b4d0146101d25780631487493e146101f457806324200f6b14610207575b600080fd5b3480156101de57600080fd5b506101f26101ed366004613ba4565b610565565b005b6101f2610202366004613c20565b610608565b34801561021357600080fd5b506101f2610222366004613ca1565b6106d6565b6101f2610235366004613cec565b610774565b34801561024657600080fd5b506101f2610255366004613d51565b6108e6565b34801561026657600080fd5b506101f2610275366004613de0565b610c5e565b34801561028657600080fd5b506101f2610295366004613e21565b610cc1565b3480156102a657600080fd5b506101f26102b5366004613c20565b610d4e565b3480156102c657600080fd5b506101f26102d5366004613e5a565b610e75565b3480156102e657600080fd5b506101f26102f5366004613e21565b610f1a565b6101f2610308366004613ea2565b610f7d565b34801561031957600080fd5b5061032d610328366004613f43565b611302565b60405190815260200160405180910390f35b34801561034b57600080fd5b506101f261035a366004613f7a565b6113b4565b34801561036b57600080fd5b506101f261037a366004613fcf565b61141d565b61032d61038d366004613ea2565b61157c565b34801561039e57600080fd5b506101f26103ad366004613d51565b6115dc565b3480156103be57600080fd5b5061032d6103cd366004614036565b6119ed565b3480156103de57600080fd5b506101f26103ed366004613f43565b611a51565b3480156103fe57600080fd5b506101f261040d3660046140f8565b611abb565b34801561041e57600080fd5b506101f261042d366004614170565b611e37565b34801561043e57600080fd5b506101f261044d3660046141a5565b611ea0565b34801561045e57600080fd5b506101f261046d366004613f43565b611f07565b34801561047e57600080fd5b506101f261048d366004613de0565b611f71565b34801561049e57600080fd5b506101f26104ad3660046140f8565b611fbf565b3480156104be57600080fd5b506101f26104cd366004614036565b6123f9565b3480156104de57600080fd5b506101f26104ed366004613d51565b612941565b3480156104fe57600080fd5b506101f261050d3660046141e9565b612cca565b34801561051e57600080fd5b506101f261052d366004614259565b612d8a565b34801561053e57600080fd5b506101f261054d366004613e21565b612dfc565b6101f26105603660046142ac565b612e5f565b6001600160a01b037f000000000000000000000000000000000000000000000000000000000000000016300361059a57600080fd5b604051630c04449360e11b81526001600160a01b038716906318088926906105ce9088908890889088908890600401614320565b600060405180830381600087803b1580156105e857600080fd5b505af11580156105fc573d6000803e3d6000fd5b50505050505050505050565b6001600160a01b037f000000000000000000000000000000000000000000000000000000000000000016300361063d57600080fd5b60405163133f757160e31b8152600481018490526000906001600160a01b038716906399fbab8890602401602060405180830381865afa158015610685573d6000803e3d6000fd5b505050506040513d601f19601f820116820180604052508101906106a9919061434e565b90506106b785828585610774565b6106ce86856106c534612f4e565b600087876113b4565b505050505050565b6001600160a01b037f000000000000000000000000000000000000000000000000000000000000000016300361070b57600080fd5b6040516314966b0360e31b81526001600160a01b038381166004830152821515602483015284169063a4b35818906044015b600060405180830381600087803b15801561075757600080fd5b505af115801561076b573d6000803e3d6000fd5b50505050505050565b6001600160a01b037f00000000000000000000000000000000000000000000000000000000000000001630036107a957600080fd5b6000846001600160a01b031663b2016bd46040518163ffffffff1660e01b81526004016020604051808303816000875af11580156107eb573d6000803e3d6000fd5b505050506040513d601f19601f8201168201806040525081019061080f919061434e565b9050806001600160a01b031663d0e30db0346040518263ffffffff1660e01b81526004016000604051808303818588803b15801561084c57600080fd5b505af1158015610860573d6000803e3d6000fd5b5061087b935050506001600160a01b03831690508634612fb2565b604051630937b85760e31b81526001600160a01b038616906349bdc2b8906108ad908790349088908890600401614372565b600060405180830381600087803b1580156108c757600080fd5b505af11580156108db573d6000803e3d6000fd5b505050505050505050565b6001600160a01b037f000000000000000000000000000000000000000000000000000000000000000016300361091b57600080fd5b60405163133f757160e31b8152600481018590526000906001600160a01b038916906399fbab8890602401602060405180830381865afa158015610963573d6000803e3d6000fd5b505050506040513d601f19601f82011682018060405250810190610987919061434e565b90506000886001600160a01b031663e3b3932a6040518163ffffffff1660e01b8152600401602060405180830381865afa1580156109c9573d6000803e3d6000fd5b505050506040513d601f19601f820116820180604052508101906109ed919061434e565b6040516336df277960e11b8152600481018890529091506000906001600160a01b038b1690636dbe4ef290602401602060405180830381865afa158015610a38573d6000803e3d6000fd5b505050506040513d601f19601f82011682018060405250810190610a5c91906143a4565b9050610a798a886000610a72868e89888e613116565b89896113b4565b610a888a88306102d58a61326d565b60405163d9ea915560e01b81523060048201526001600160a01b03898116602483015283169063d9ea915590604401602060405180830381865afa158015610ad4573d6000803e3d6000fd5b505050506040513d601f19601f82011682018060405250810190610af891906143a4565b600003610b5b5760405163e43252d760e01b81526001600160a01b03898116600483015283169063e43252d790602401600060405180830381600087803b158015610b4257600080fd5b505af1158015610b56573d6000803e3d6000fd5b505050505b6040516331f0926560e01b81526001600160a01b038916906331f0926590610b8d9033908a908a908a90600401614372565b600060405180830381600087803b158015610ba757600080fd5b505af1158015610bbb573d6000803e3d6000fd5b50506040516319d224a160e31b8152600481018490526001600160a01b038d16925063ce9125089150602401600060405180830381600087803b158015610c0157600080fd5b505af1158015610c15573d6000803e3d6000fd5b505050507fe83a08ae515fd9df0f768f1e44ddb4ab75353eb54f92aa8caac1d277804ee9a58387604051610c4a9291906143bd565b60405180910390a150505050505050505050565b6001600160a01b037f0000000000000000000000000000000000000000000000000000000000000000163003610c9357600080fd5b604051632309463960e01b81526001600160a01b0384169063230946399061073d90859085906004016143bd565b6001600160a01b037f0000000000000000000000000000000000000000000000000000000000000000163003610cf657600080fd5b60405163e43252d760e01b81526001600160a01b03828116600483015283169063e43252d7906024015b600060405180830381600087803b158015610d3a57600080fd5b505af11580156106ce573d6000803e3d6000fd5b6001600160a01b037f0000000000000000000000000000000000000000000000000000000000000000163003610d8357600080fd5b6001600160a01b038416610db25760405162461bcd60e51b8152600401610da9906143d6565b60405180910390fd5b6000856001600160a01b031663e9cbd8226040518163ffffffff1660e01b81526004016020604051808303816000875af1158015610df4573d6000803e3d6000fd5b505050506040513d601f19601f82011682018060405250810190610e18919061434e565b9050610e2f6001600160a01b03821633308761328b565b610e436001600160a01b0382168786612fb2565b604051630937b85760e31b81526001600160a01b038716906349bdc2b8906105ce908890889088908890600401614372565b6001600160a01b037f0000000000000000000000000000000000000000000000000000000000000000163003610eaa57600080fd5b6040516318d326fd60e31b8152600481018490526001600160a01b0383811660248301526044820183905285169063c69937e8906064015b600060405180830381600087803b158015610efc57600080fd5b505af1158015610f10573d6000803e3d6000fd5b5050505050505050565b6001600160a01b037f0000000000000000000000000000000000000000000000000000000000000000163003610f4f57600080fd5b604051631bfc726f60e21b81526001600160a01b038281166004830152831690636ff1c9bc90602401610d20565b6001600160a01b037f0000000000000000000000000000000000000000000000000000000000000000163003610fb257600080fd5b60405163133f757160e31b8152600481018590526000906001600160a01b038a16906399fbab8890602401602060405180830381865afa158015610ffa573d6000803e3d6000fd5b505050506040513d601f19601f8201168201806040525081019061101e919061434e565b90506000896001600160a01b031663e3b3932a6040518163ffffffff1660e01b8152600401602060405180830381865afa158015611060573d6000803e3d6000fd5b505050506040513d601f19601f82011682018060405250810190611084919061434e565b6040516336df277960e11b8152600481018890529091506000906001600160a01b038c1690636dbe4ef290602401602060405180830381865afa1580156110cf573d6000803e3d6000fd5b505050506040513d601f19601f820116820180604052508101906110f391906143a4565b905061110189848787610774565b61111c8b8861110f34612f4e565b610a72868f89888e613116565b61112b8b88306102d58a61326d565b60405163d9ea915560e01b81523060048201526001600160a01b03898116602483015283169063d9ea915590604401602060405180830381865afa158015611177573d6000803e3d6000fd5b505050506040513d601f19601f8201168201806040525081019061119b91906143a4565b6000036111fe5760405163e43252d760e01b81526001600160a01b03898116600483015283169063e43252d790602401600060405180830381600087803b1580156111e557600080fd5b505af11580156111f9573d6000803e3d6000fd5b505050505b6040516331f0926560e01b81526001600160a01b038916906331f09265906112309033908a908a908a90600401614372565b600060405180830381600087803b15801561124a57600080fd5b505af115801561125e573d6000803e3d6000fd5b50506040516319d224a160e31b8152600481018490526001600160a01b038e16925063ce9125089150602401600060405180830381600087803b1580156112a457600080fd5b505af11580156112b8573d6000803e3d6000fd5b505050507fe83a08ae515fd9df0f768f1e44ddb4ab75353eb54f92aa8caac1d277804ee9a583876040516112ed9291906143bd565b60405180910390a15050505050505050505050565b60006001600160a01b037f000000000000000000000000000000000000000000000000000000000000000016300361133957600080fd5b604051636090dec560e01b8152600481018490526001600160a01b038381166024830152851690636090dec5906044016020604051808303816000875af1158015611388573d6000803e3d6000fd5b505050506040513d601f19601f820116820180604052508101906113ac91906143a4565b949350505050565b6001600160a01b037f00000000000000000000000000000000000000000000000000000000000000001630036113e957600080fd5b6040516388786b9960e01b81526001600160a01b038716906388786b99906105ce9088908890889088908890600401614420565b6001600160a01b037f000000000000000000000000000000000000000000000000000000000000000016300361145257600080fd5b6001600160a01b0385166114785760405162461bcd60e51b8152600401610da9906143d6565b6000866001600160a01b031663b2016bd46040518163ffffffff1660e01b81526004016020604051808303816000875af11580156114ba573d6000803e3d6000fd5b505050506040513d601f19601f820116820180604052508101906114de919061434e565b905083156114fb576114fb6001600160a01b03821633308861328b565b61150f6001600160a01b0382168887612fb2565b604051630937b85760e31b81526001600160a01b038816906349bdc2b890611541908990899088908890600401614372565b600060405180830381600087803b15801561155b57600080fd5b505af115801561156f573d6000803e3d6000fd5b5050505050505050505050565b60006001600160a01b037f00000000000000000000000000000000000000000000000000000000000000001630036115b357600080fd5b6115be898630611302565b90506115d08989898985898989610f7d565b98975050505050505050565b6001600160a01b037f000000000000000000000000000000000000000000000000000000000000000016300361161157600080fd5b6000876001600160a01b031663e3b3932a6040518163ffffffff1660e01b8152600401602060405180830381865afa158015611651573d6000803e3d6000fd5b505050506040513d601f19601f82011682018060405250810190611675919061434e565b60405163133f757160e31b8152600481018790529091506000906001600160a01b038a16906399fbab8890602401602060405180830381865afa1580156116c0573d6000803e3d6000fd5b505050506040513d601f19601f820116820180604052508101906116e4919061434e565b6040516336df277960e11b8152600481018890529091506000906001600160a01b038b1690636dbe4ef290602401602060405180830381865afa15801561172f573d6000803e3d6000fd5b505050506040513d601f19601f8201168201806040525081019061175391906143a4565b604051630a76216560e21b8152600481018290526001600160a01b0384811660248301529192506000918516906329d88594906044016040805180830381865afa1580156117a5573d6000803e3d6000fd5b505050506040513d601f19601f820116820180604052508101906117c99190614446565b91505060006117da858586866133ff565b90506117e98a85838a8a610d4e565b6118198c8a6117f78b612f4e565b61180090614480565b61180986612f4e565b61181290614480565b8b8b6113b4565b871561195e5761182d8c8a308b8b8b610565565b6040516331f0926560e01b81526001600160a01b038c16906331f092659061185f9030908c908c908c90600401614372565b600060405180830381600087803b15801561187957600080fd5b505af115801561188d573d6000803e3d6000fd5b505050508a6001600160a01b031663b2016bd46040518163ffffffff1660e01b81526004016020604051808303816000875af11580156118d1573d6000803e3d6000fd5b505050506040513d601f19601f820116820180604052508101906118f5919061434e565b6001600160a01b0316632e1a7d4d896040518263ffffffff1660e01b815260040161192291815260200190565b600060405180830381600087803b15801561193c57600080fd5b505af1158015611950573d6000803e3d6000fd5b5050505061195e338961361f565b6040516319d224a160e31b8152600481018490526001600160a01b038d169063ce91250890602401600060405180830381600087803b1580156119a057600080fd5b505af11580156119b4573d6000803e3d6000fd5b505050506000805160206146ae83398151915284826040516119d79291906143bd565b60405180910390a1505050505050505050505050565b60006001600160a01b037f0000000000000000000000000000000000000000000000000000000000000000163003611a2457600080fd5b611a2f8b8830611302565b9050611a438b8b8b8b858b8b8b8b8b6123f9565b9a9950505050505050505050565b6001600160a01b037f0000000000000000000000000000000000000000000000000000000000000000163003611a8657600080fd5b604051631f95f98d60e31b8152600481018390526001600160a01b03828116602483015284169063fcafcc689060440161073d565b6001600160a01b037f0000000000000000000000000000000000000000000000000000000000000000163003611af057600080fd5b60405163133f757160e31b8152600481018690526000906001600160a01b038a16906399fbab8890602401602060405180830381865afa158015611b38573d6000803e3d6000fd5b505050506040513d601f19601f82011682018060405250810190611b5c919061434e565b6040516336df277960e11b8152600481018890529091506000906001600160a01b038b1690636dbe4ef290602401602060405180830381865afa158015611ba7573d6000803e3d6000fd5b505050506040513d601f19601f82011682018060405250810190611bcb91906143a4565b9050611bda8883878787610d4e565b6000611be68a886136d2565b90506000611d248c6001600160a01b031663e3b3932a6040518163ffffffff1660e01b8152600401602060405180830381865afa158015611c2b573d6000803e3d6000fd5b505050506040513d601f19601f82011682018060405250810190611c4f919061434e565b8d6001600160a01b031663e3b3932a6040518163ffffffff1660e01b8152600401602060405180830381865afa158015611c8d573d6000803e3d6000fd5b505050506040513d601f19601f82011682018060405250810190611cb1919061434e565b60405163b4ac08bb60e01b81526001600160a01b038881166004830152919091169063b4ac08bb90602401602060405180830381865afa158015611cf9573d6000803e3d6000fd5b505050506040513d601f19601f82011682018060405250810190611d1d91906143a4565b86866137ec565b9050611d458c8a611d3485612f4e565b611d3d90614480565b848a8a6113b4565b8715611dbe57611d598c8a30858a8a610565565b6040516331f0926560e01b81526001600160a01b038c16906331f0926590611d8b9033908c908b908b90600401614372565b600060405180830381600087803b158015611da557600080fd5b505af1158015611db9573d6000803e3d6000fd5b505050505b6040516319d224a160e31b8152600481018490526001600160a01b038d169063ce91250890602401600060405180830381600087803b158015611e0057600080fd5b505af1158015611e14573d6000803e3d6000fd5b505050506000805160206146ae83398151915284886040516119d79291906143bd565b6001600160a01b037f0000000000000000000000000000000000000000000000000000000000000000163003611e6c57600080fd5b60405163a3cf2f4f60e01b815260048101839052602481018290526001600160a01b0384169063a3cf2f4f9060440161073d565b6001600160a01b037f0000000000000000000000000000000000000000000000000000000000000000163003611ed557600080fd5b604051632ce0ee0560e01b81526001600160a01b03851690632ce0ee0590610ee290869030908790879060040161449c565b6001600160a01b037f0000000000000000000000000000000000000000000000000000000000000000163003611f3c57600080fd5b60405163ba9a392560e01b8152600481018390526001600160a01b03828116602483015284169063ba9a39259060440161073d565b6001600160a01b037f0000000000000000000000000000000000000000000000000000000000000000163003611fa657600080fd5b611fba6001600160a01b0384168383613983565b505050565b6001600160a01b037f0000000000000000000000000000000000000000000000000000000000000000163003611ff457600080fd5b60405163133f757160e31b8152600481018690526000906001600160a01b038a16906399fbab8890602401602060405180830381865afa15801561203c573d6000803e3d6000fd5b505050506040513d601f19601f82011682018060405250810190612060919061434e565b6040516336df277960e11b8152600481018890529091506000906001600160a01b038b1690636dbe4ef290602401602060405180830381865afa1580156120ab573d6000803e3d6000fd5b505050506040513d601f19601f820116820180604052508101906120cf91906143a4565b90506120de8883878787610d4e565b600061221a8b6001600160a01b031663e3b3932a6040518163ffffffff1660e01b8152600401602060405180830381865afa158015612121573d6000803e3d6000fd5b505050506040513d601f19601f82011682018060405250810190612145919061434e565b8c6001600160a01b031663e3b3932a6040518163ffffffff1660e01b8152600401602060405180830381865afa158015612183573d6000803e3d6000fd5b505050506040513d601f19601f820116820180604052508101906121a7919061434e565b60405163b4ac08bb60e01b81526001600160a01b038781166004830152919091169063b4ac08bb90602401602060405180830381865afa1580156121ef573d6000803e3d6000fd5b505050506040513d601f19601f8201168201806040525081019061221391906143a4565b85856137ec565b905061223b8b8961222a8a612f4e565b61223390614480565b8489896113b4565b86156123805761224f8b89308a8989610565565b6040516331f0926560e01b81526001600160a01b038b16906331f09265906122819030908b908a908a90600401614372565b600060405180830381600087803b15801561229b57600080fd5b505af11580156122af573d6000803e3d6000fd5b50505050896001600160a01b031663b2016bd46040518163ffffffff1660e01b81526004016020604051808303816000875af11580156122f3573d6000803e3d6000fd5b505050506040513d601f19601f82011682018060405250810190612317919061434e565b6001600160a01b0316632e1a7d4d886040518263ffffffff1660e01b815260040161234491815260200190565b600060405180830381600087803b15801561235e57600080fd5b505af1158015612372573d6000803e3d6000fd5b50505050612380338861361f565b6040516319d224a160e31b8152600481018390526001600160a01b038c169063ce91250890602401600060405180830381600087803b1580156123c257600080fd5b505af11580156123d6573d6000803e3d6000fd5b505050506000805160206146ae83398151915283876040516112ed9291906143bd565b6001600160a01b037f000000000000000000000000000000000000000000000000000000000000000016300361242e57600080fd5b6040516336df277960e11b8152600481018790526000906001600160a01b038c1690636dbe4ef290602401602060405180830381865afa158015612476573d6000803e3d6000fd5b505050506040513d601f19601f8201168201806040525081019061249a91906143a4565b9050612518898c6001600160a01b03166399fbab888a6040518263ffffffff1660e01b81526004016124ce91815260200190565b602060405180830381865afa1580156124eb573d6000803e3d6000fd5b505050506040513d601f19601f8201168201806040525081019061250f919061434e565b8887878761141d565b600061252c6125278b896136d2565b612f4e565b9050600061260c8d6001600160a01b031663e3b3932a6040518163ffffffff1660e01b8152600401602060405180830381865afa158015612571573d6000803e3d6000fd5b505050506040513d601f19601f82011682018060405250810190612595919061434e565b8d8f6001600160a01b03166399fbab888d6040518263ffffffff1660e01b81526004016125c491815260200190565b602060405180830381865afa1580156125e1573d6000803e3d6000fd5b505050506040513d601f19601f82011682018060405250810190612605919061434e565b868b613116565b905061261c8d8a848489896113b4565b61262b8d8a306102d58b61326d565b8c6001600160a01b031663e3b3932a6040518163ffffffff1660e01b8152600401602060405180830381865afa158015612669573d6000803e3d6000fd5b505050506040513d601f19601f8201168201806040525081019061268d919061434e565b60405163d9ea915560e01b81523060048201526001600160a01b038c81166024830152919091169063d9ea915590604401602060405180830381865afa1580156126db573d6000803e3d6000fd5b505050506040513d601f19601f820116820180604052508101906126ff91906143a4565b6000036127c6578c6001600160a01b031663e3b3932a6040518163ffffffff1660e01b8152600401602060405180830381865afa158015612744573d6000803e3d6000fd5b505050506040513d601f19601f82011682018060405250810190612768919061434e565b60405163e43252d760e01b81526001600160a01b038c81166004830152919091169063e43252d790602401600060405180830381600087803b1580156127ad57600080fd5b505af11580156127c1573d6000803e3d6000fd5b505050505b6040516331f0926560e01b81526001600160a01b038b16906331f09265906127f89033908b908a908a90600401614372565b600060405180830381600087803b15801561281257600080fd5b505af1158015612826573d6000803e3d6000fd5b5050505060008d6001600160a01b03166399fbab888b6040518263ffffffff1660e01b815260040161285a91815260200190565b602060405180830381865afa158015612877573d6000803e3d6000fd5b505050506040513d601f19601f8201168201806040525081019061289b919061434e565b6040516319d224a160e31b8152600481018690529091506001600160a01b038f169063ce91250890602401600060405180830381600087803b1580156128e057600080fd5b505af11580156128f4573d6000803e3d6000fd5b505050507fe83a08ae515fd9df0f768f1e44ddb4ab75353eb54f92aa8caac1d277804ee9a581896040516129299291906143bd565b60405180910390a15050505050505050505050505050565b6001600160a01b037f000000000000000000000000000000000000000000000000000000000000000016300361297657600080fd5b60405163133f757160e31b8152600481018590526000906001600160a01b038916906399fbab8890602401602060405180830381865afa1580156129be573d6000803e3d6000fd5b505050506040513d601f19601f820116820180604052508101906129e2919061434e565b6040516336df277960e11b8152600481018790529091506000906001600160a01b038a1690636dbe4ef290602401602060405180830381865afa158015612a2d573d6000803e3d6000fd5b505050506040513d601f19601f82011682018060405250810190612a5191906143a4565b90506000896001600160a01b031663e3b3932a6040518163ffffffff1660e01b8152600401602060405180830381865afa158015612a93573d6000803e3d6000fd5b505050506040513d601f19601f82011682018060405250810190612ab7919061434e565b604051630a76216560e21b8152600481018490526001600160a01b03858116602483015291909116906329d88594906044016040805180830381865afa158015612b05573d6000803e3d6000fd5b505050506040513d601f19601f82011682018060405250810190612b299190614446565b9150506000612b9b8b6001600160a01b031663e3b3932a6040518163ffffffff1660e01b8152600401602060405180830381865afa158015612b6f573d6000803e3d6000fd5b505050506040513d601f19601f82011682018060405250810190612b93919061434e565b8586866133ff565b9050612baa8985838989610d4e565b6000612bb68b896136d2565b9050612bd88c8a612bc684612f4e565b612bcf90614480565b61180987612f4e565b8715612c5157612bec8c8a30848b8b610565565b6040516331f0926560e01b81526001600160a01b038c16906331f0926590612c1e9033908c908c908c90600401614372565b600060405180830381600087803b158015612c3857600080fd5b505af1158015612c4c573d6000803e3d6000fd5b505050505b6040516319d224a160e31b8152600481018590526001600160a01b038d169063ce91250890602401600060405180830381600087803b158015612c9357600080fd5b505af1158015612ca7573d6000803e3d6000fd5b505050506000805160206146ae83398151915285836040516119d79291906143bd565b6001600160a01b037f0000000000000000000000000000000000000000000000000000000000000000163003612cff57600080fd5b60405163133f757160e31b8152600481018690526000906001600160a01b038916906399fbab8890602401602060405180830381865afa158015612d47573d6000803e3d6000fd5b505050506040513d601f19601f82011682018060405250810190612d6b919061434e565b9050612d7b87828787878761141d565b610f1088876106c58a896136d2565b6001600160a01b037f0000000000000000000000000000000000000000000000000000000000000000163003612dbf57600080fd5b60405163e327ddc160e01b8152600481018490526001600160a01b038381166024830152821515604483015285169063e327ddc190606401610ee2565b6001600160a01b037f0000000000000000000000000000000000000000000000000000000000000000163003612e3157600080fd5b604051638ab1d68160e01b81526001600160a01b038281166004830152831690638ab1d68190602401610d20565b6001600160a01b037f0000000000000000000000000000000000000000000000000000000000000000163003612e9457600080fd5b60405163025e7c2760e01b8152600481018590526001600160a01b03808516919088169063025e7c2790602401602060405180830381865afa158015612ede573d6000803e3d6000fd5b505050506040513d601f19601f82011682018060405250810190612f02919061434e565b6001600160a01b031614612f415760405162461bcd60e51b815260206004820152600660248201526510b7bbb732b960d11b6044820152606401610da9565b6106ce8686868585610608565b600080821215612fae5760405162461bcd60e51b815260206004820152602560248201527f466174686f6d537461626c65636f696e50726f7879416374696f6e732f6f766560448201526472666c6f7760d81b6064820152608401610da9565b5090565b6001600160a01b0383163b6130135760405162461bcd60e51b815260206004820152602160248201527f73616665417070726f76653a206e6f6e2d636f6e7472616374206164647265736044820152607360f81b6064820152608401610da9565b600080846001600160a01b031684846040516024016130339291906143bd565b60408051601f198184030181529181526020820180516001600160e01b031663095ea7b360e01b1790525161306891906144c7565b6000604051808303816000865af19150503d80600081146130a5576040519150601f19603f3d011682016040523d82523d6000602084013e6130aa565b606091505b50915091508180156130d45750805115806130d45750808060200190518101906130d491906144f6565b61310f5760405162461bcd60e51b815260206004820152600c60248201526b2173616665417070726f766560a01b6044820152606401610da9565b5050505050565b60405163497777d560e01b81526004810183905260009081906001600160a01b0387169063497777d5906024016020604051808303816000875af1158015613162573d6000803e3d6000fd5b505050506040513d601f19601f8201168201806040525081019061318691906143a4565b60405163b4ac08bb60e01b81526001600160a01b03878116600483015291925060009189169063b4ac08bb90602401602060405180830381865afa1580156131d2573d6000803e3d6000fd5b505050506040513d601f19601f820116820180604052508101906131f691906143a4565b90506132018461326d565b8110156132625761322a82826132168761326d565b6132209190614513565b6125279190614526565b92506132358461326d565b8261323f85613ae2565b6132499190614548565b10613254578261325f565b61325f83600161455f565b92505b505095945050505050565b60006132856b033b2e3c9fd0803ce800000083614548565b92915050565b6001600160a01b0384163b6132f15760405162461bcd60e51b815260206004820152602660248201527f736166655472616e7366657246726f6d3a206e6f6e2d636f6e7472616374206160448201526564647265737360d01b6064820152608401610da9565b6040516001600160a01b038481166024830152838116604483015260648201839052600091829187169060840160408051601f198184030181529181526020820180516001600160e01b03166323b872dd60e01b1790525161335391906144c7565b6000604051808303816000865af19150503d8060008114613390576040519150601f19603f3d011682016040523d82523d6000602084013e613395565b606091505b50915091508180156133bf5750805115806133bf5750808060200190518101906133bf91906144f6565b6106ce5760405162461bcd60e51b815260206004820152601160248201527021736166655472616e7366657246726f6d60781b6044820152606401610da9565b600080856001600160a01b031663d86824616040518163ffffffff1660e01b8152600401602060405180830381865afa158015613440573d6000803e3d6000fd5b505050506040513d601f19601f82011682018060405250810190613464919061434e565b6001600160a01b031663a09b0fe0846040518263ffffffff1660e01b815260040161349191815260200190565b602060405180830381865afa1580156134ae573d6000803e3d6000fd5b505050506040513d601f19601f820116820180604052508101906134d291906143a4565b604051630a76216560e21b8152600481018590526001600160a01b0386811660248301529192506000918816906329d88594906044016040805180830381865afa158015613524573d6000803e3d6000fd5b505050506040513d601f19601f820116820180604052508101906135489190614446565b60405163b4ac08bb60e01b81526001600160a01b038981166004830152919350600092509089169063b4ac08bb90602401602060405180830381865afa158015613596573d6000803e3d6000fd5b505050506040513d601f19601f820116820180604052508101906135ba91906143a4565b905060006135c88484614548565b90506000828210156135db5760006135e5565b6135e58383614513565b90506135fd6b033b2e3c9fd0803ce800000082614526565b9550806136098761326d565b106136145785611a43565b611a43866001614587565b6040805160008082526020820192839052916001600160a01b0385169161520891859161364b916144c7565b600060405180830381858888f193505050503d8060008114613689576040519150601f19603f3d011682016040523d82523d6000602084013e61368e565b606091505b5050905080611fba5760405162461bcd60e51b815260206004820152601060248201526f042e6c2cccaa8e4c2dce6cccae48aa8960831b6044820152606401610da9565b600080836001600160a01b031663b2016bd46040518163ffffffff1660e01b81526004016020604051808303816000875af1158015613715573d6000803e3d6000fd5b505050506040513d601f19601f82011682018060405250810190613739919061434e565b6001600160a01b031663313ce5676040518163ffffffff1660e01b8152600401602060405180830381865afa158015613776573d6000803e3d6000fd5b505050506040513d601f19601f8201168201806040525081019061379a919061459a565b60ff169050601281106137cc576137b2601282614513565b6137bd90600a6146a1565b6137c79084614526565b6113ac565b6137d7816012614513565b6137e290600a6146a1565b6113ac9084614548565b600080856001600160a01b031663d86824616040518163ffffffff1660e01b8152600401602060405180830381865afa15801561382d573d6000803e3d6000fd5b505050506040513d601f19601f82011682018060405250810190613851919061434e565b6001600160a01b031663a09b0fe0846040518263ffffffff1660e01b815260040161387e91815260200190565b602060405180830381865afa15801561389b573d6000803e3d6000fd5b505050506040513d601f19601f820116820180604052508101906138bf91906143a4565b604051630a76216560e21b8152600481018590526001600160a01b0386811660248301529192506000918816906329d88594906044016040805180830381865afa158015613911573d6000803e3d6000fd5b505050506040513d601f19601f820116820180604052508101906139359190614446565b915061394690506125278388614526565b92508061395284613ae2565b111561396f5761396181612f4e565b61396a90614480565b613978565b61397883614480565b979650505050505050565b6001600160a01b0383163b6139e55760405162461bcd60e51b815260206004820152602260248201527f736166655472616e736665723a206e6f6e2d636f6e7472616374206164647265604482015261737360f01b6064820152608401610da9565b600080846001600160a01b03168484604051602401613a059291906143bd565b60408051601f198184030181529181526020820180516001600160e01b031663a9059cbb60e01b17905251613a3a91906144c7565b6000604051808303816000865af19150503d8060008114613a77576040519150601f19603f3d011682016040523d82523d6000602084013e613a7c565b606091505b5091509150818015613aa6575080511580613aa6575080806020019051810190613aa691906144f6565b61310f5760405162461bcd60e51b815260206004820152600d60248201526c10b9b0b332aa3930b739b332b960991b6044820152606401610da9565b600080821215612fae5760405162461bcd60e51b815260206004820152602660248201527f466174686f6d537461626c65636f696e50726f7879416374696f6e732f756e646044820152656572666c6f7760d01b6064820152608401610da9565b6001600160a01b0381168114613b5857600080fd5b50565b60008083601f840112613b6d57600080fd5b50813567ffffffffffffffff811115613b8557600080fd5b602083019150836020828501011115613b9d57600080fd5b9250929050565b60008060008060008060a08789031215613bbd57600080fd5b8635613bc881613b43565b9550602087013594506040870135613bdf81613b43565b935060608701359250608087013567ffffffffffffffff811115613c0257600080fd5b613c0e89828a01613b5b565b979a9699509497509295939492505050565b600080600080600060808688031215613c3857600080fd5b8535613c4381613b43565b94506020860135613c5381613b43565b935060408601359250606086013567ffffffffffffffff811115613c7657600080fd5b613c8288828901613b5b565b969995985093965092949392505050565b8015158114613b5857600080fd5b600080600060608486031215613cb657600080fd5b8335613cc181613b43565b92506020840135613cd181613b43565b91506040840135613ce181613c93565b809150509250925092565b60008060008060608587031215613d0257600080fd5b8435613d0d81613b43565b93506020850135613d1d81613b43565b9250604085013567ffffffffffffffff811115613d3957600080fd5b613d4587828801613b5b565b95989497509550505050565b600080600080600080600060c0888a031215613d6c57600080fd5b8735613d7781613b43565b96506020880135613d8781613b43565b95506040880135613d9781613b43565b9450606088013593506080880135925060a088013567ffffffffffffffff811115613dc157600080fd5b613dcd8a828b01613b5b565b989b979a50959850939692959293505050565b600080600060608486031215613df557600080fd5b8335613e0081613b43565b92506020840135613e1081613b43565b929592945050506040919091013590565b60008060408385031215613e3457600080fd5b8235613e3f81613b43565b91506020830135613e4f81613b43565b809150509250929050565b60008060008060808587031215613e7057600080fd5b8435613e7b81613b43565b9350602085013592506040850135613e9281613b43565b9396929550929360600135925050565b60008060008060008060008060e0898b031215613ebe57600080fd5b8835613ec981613b43565b97506020890135613ed981613b43565b96506040890135613ee981613b43565b95506060890135613ef981613b43565b94506080890135935060a0890135925060c089013567ffffffffffffffff811115613f2357600080fd5b613f2f8b828c01613b5b565b999c989b5096995094979396929594505050565b600080600060608486031215613f5857600080fd5b8335613f6381613b43565b9250602084013591506040840135613ce181613b43565b60008060008060008060a08789031215613f9357600080fd5b8635613f9e81613b43565b9550602087013594506040870135935060608701359250608087013567ffffffffffffffff811115613c0257600080fd5b60008060008060008060a08789031215613fe857600080fd5b8635613ff381613b43565b9550602087013561400381613b43565b945060408701359350606087013561401a81613c93565b9250608087013567ffffffffffffffff811115613c0257600080fd5b6000806000806000806000806000806101208b8d03121561405657600080fd5b8a3561406181613b43565b995060208b013561407181613b43565b985060408b013561408181613b43565b975060608b013561409181613b43565b965060808b0135955060a08b0135945060c08b0135935060e08b01356140b681613c93565b92506101008b013567ffffffffffffffff8111156140d357600080fd5b6140df8d828e01613b5b565b915080935050809150509295989b9194979a5092959850565b60008060008060008060008060e0898b03121561411457600080fd5b883561411f81613b43565b9750602089013561412f81613b43565b9650604089013561413f81613b43565b9550606089013594506080890135935060a0890135925060c089013567ffffffffffffffff811115613f2357600080fd5b60008060006060848603121561418557600080fd5b833561419081613b43565b95602085013595506040909401359392505050565b600080600080606085870312156141bb57600080fd5b84356141c681613b43565b935060208501359250604085013567ffffffffffffffff811115613d3957600080fd5b600080600080600080600060c0888a03121561420457600080fd5b873561420f81613b43565b9650602088013561421f81613b43565b95506040880135945060608801359350608088013561423d81613c93565b925060a088013567ffffffffffffffff811115613dc157600080fd5b6000806000806080858703121561426f57600080fd5b843561427a81613b43565b935060208501359250604085013561429181613b43565b915060608501356142a181613c93565b939692955090935050565b60008060008060008060a087890312156142c557600080fd5b86356142d081613b43565b955060208701356142e081613b43565b945060408701359350606087013561401a81613b43565b81835281816020850137506000828201602090810191909152601f909101601f19169091010190565b85815260018060a01b03851660208201528360408201526080606082015260006139786080830184866142f7565b60006020828403121561436057600080fd5b815161436b81613b43565b9392505050565b60018060a01b038516815283602082015260606040820152600061439a6060830184866142f7565b9695505050505050565b6000602082840312156143b657600080fd5b5051919050565b6001600160a01b03929092168252602082015260400190565b6020808252602a908201527f436f6c6c61746572616c506f6f6c436f6e6669672f7a65726f2d706f736974696040820152696f6e2d6164647265737360b01b606082015260800190565b8581528460208201528360408201526080606082015260006139786080830184866142f7565b6000806040838503121561445957600080fd5b505080516020909101519092909150565b634e487b7160e01b600052601160045260246000fd5b6000600160ff1b82016144955761449561446a565b5060000390565b8481526001600160a01b038416602082015260606040820181905260009061439a90830184866142f7565b6000825160005b818110156144e857602081860181015185830152016144ce565b506000920191825250919050565b60006020828403121561450857600080fd5b815161436b81613c93565b818103818111156132855761328561446a565b60008261454357634e487b7160e01b600052601260045260246000fd5b500490565b80820281158282048414176132855761328561446a565b808201828112600083128015821682158216171561457f5761457f61446a565b505092915050565b808201808211156132855761328561446a565b6000602082840312156145ac57600080fd5b815160ff8116811461436b57600080fd5b600181815b808511156145f85781600019048211156145de576145de61446a565b808516156145eb57918102915b93841c93908002906145c2565b509250929050565b60008261460f57506001613285565b8161461c57506000613285565b8160018114614632576002811461463c57614658565b6001915050613285565b60ff84111561464d5761464d61446a565b50506001821b613285565b5060208310610133831016604e8410600b841016171561467b575081810a613285565b61468583836145bd565b80600019048211156146995761469961446a565b029392505050565b600061436b838361460056fe445146cd84cf386cadbd440abe38a3aeed2d4998f099e6e93d5d02529614ff58a2646970667358221220ba08244677a82aa22af6de26c1df73a9290b29409faca034d61b8efccaf18e4d64736f6c63430008110033",
  "immutableReferences": {
    "9464": [
      {
        "length": 32,
        "start": 1391
      },
      {
        "length": 32,
        "start": 1554
      },
      {
        "length": 32,
        "start": 1760
      },
      {
        "length": 32,
        "start": 1918
      },
      {
        "length": 32,
        "start": 2288
      },
      {
        "length": 32,
        "start": 3176
      },
      {
        "length": 32,
        "start": 3275
      },
      {
        "length": 32,
        "start": 3416
      },
      {
        "length": 32,
        "start": 3711
      },
      {
        "length": 32,
        "start": 3876
      },
      {
        "length": 32,
        "start": 3975
      },
      {
        "length": 32,
        "start": 4878
      },
      {
        "length": 32,
        "start": 5054
      },
      {
        "length": 32,
        "start": 5159
      },
      {
        "length": 32,
        "start": 5512
      },
      {
        "length": 32,
        "start": 5606
      },
      {
        "length": 32,
        "start": 6649
      },
      {
        "length": 32,
        "start": 6747
      },
      {
        "length": 32,
        "start": 6853
      },
      {
        "length": 32,
        "start": 7745
      },
      {
        "length": 32,
        "start": 7850
      },
      {
        "length": 32,
        "start": 7953
      },
      {
        "length": 32,
        "start": 8059
      },
      {
        "length": 32,
        "start": 8137
      },
      {
        "length": 32,
        "start": 9219
      },
      {
        "length": 32,
        "start": 10571
      },
      {
        "length": 32,
        "start": 11476
      },
      {
        "length": 32,
        "start": 11668
      },
      {
        "length": 32,
        "start": 11782
      },
      {
        "length": 32,
        "start": 11881
      }
    ]
  },
  "source": "// SPDX-License-Identifier: AGPL-3.0-or-later\npragma solidity 0.8.17;\n\nimport \"../interfaces/IBookKeeper.sol\";\nimport \"../interfaces/IWXDC.sol\";\nimport \"../interfaces/IToken.sol\";\nimport \"../interfaces/IManager.sol\";\nimport \"../interfaces/IGenericTokenAdapter.sol\";\nimport \"../interfaces/IStablecoinAdapter.sol\";\nimport \"../interfaces/IStabilityFeeCollector.sol\";\nimport \"../utils/SafeToken.sol\";\nimport \"../utils/CommonMath.sol\";\n\n/// @notice WARNING: These functions meant to be used as a library for a Proxy.\n/// @notice DO NOT CALL ANY FUNCTION IN THIS CONTRACT DIRECTLY.\n/// @notice Hence, it shouldn't has any state variables. Some are unsafe if you call them directly.\ncontract FathomStablecoinProxyActions is CommonMath {\n    using SafeToken for address;\n\n    address internal immutable self = address(this);\n\n    // solhint-disable\n    event LogBorrowedAmount(address _positionAddress, uint256 _FXDBorrowAmount);\n    event LogPaidAmount(address _positionAddress, uint256 _FXDPaidAmount);\n    // solhint-enable\n\n    modifier onlyDelegateCall() {\n        require(address(this) != self);\n        _;\n    }\n\n    function addToWhitelist(address _bookKeeper, address _usr) external onlyDelegateCall {\n        IBookKeeper(_bookKeeper).addToWhitelist(_usr);\n    }\n\n    function removeFromWhitelist(address _bookKeeper, address _usr) external onlyDelegateCall {\n        IBookKeeper(_bookKeeper).removeFromWhitelist(_usr);\n    }\n\n    function allowManagePosition(address _manager, uint256 _positionId, address _user, bool _ok) external onlyDelegateCall {\n        IManager(_manager).allowManagePosition(_positionId, _user, _ok);\n    }\n\n    function allowMigratePosition(address _manager, address _user, bool _ok) external onlyDelegateCall {\n        IManager(_manager).allowMigratePosition(_user, _ok);\n    }\n\n    function exportPosition(address _manager, uint256 _positionId, address _destination) external onlyDelegateCall {\n        IManager(_manager).exportPosition(_positionId, _destination);\n    }\n\n    function importPosition(address _manager, address _source, uint256 _positionId) external onlyDelegateCall {\n        IManager(_manager).importPosition(_source, _positionId);\n    }\n\n    function movePosition(address _manager, uint256 _source, uint256 _destination) external onlyDelegateCall {\n        IManager(_manager).movePosition(_source, _destination);\n    }\n\n    function safeLockXDC(\n        address _manager,\n        address _xdcAdapter,\n        uint256 _positionId,\n        address _owner,\n        bytes calldata _data\n    ) external payable onlyDelegateCall {\n        require(IManager(_manager).owners(_positionId) == _owner, \"!owner\");\n        lockXDC(_manager, _xdcAdapter, _positionId, _data);\n    }\n\n    function draw(\n        address _manager,\n        address _stabilityFeeCollector,\n        address _stablecoinAdapter,\n        uint256 _positionId,\n        uint256 _amount, // [wad]\n        bytes calldata _data\n    ) external onlyDelegateCall {\n        address _positionAddress = IManager(_manager).positions(_positionId);\n        address _bookKeeper = IManager(_manager).bookKeeper();\n        bytes32 _collateralPoolId = IManager(_manager).collateralPools(_positionId);\n        // Generates debt in the CDP\n        adjustPosition(\n            _manager,\n            _positionId,\n            0,\n            _getDrawDebtShare(_bookKeeper, _stabilityFeeCollector, _positionAddress, _collateralPoolId, _amount),\n            _data\n        );\n\n        moveStablecoin(_manager, _positionId, address(this), toRad(_amount)); // Moves the Fathom Stablecoin amount (balance in the bookKeeper in rad) to proxy's address\n\n        // Allows adapter to access to proxy's Fathom Stablecoin balance in the bookKeeper\n        if (IBookKeeper(_bookKeeper).positionWhitelist(address(this), address(_stablecoinAdapter)) == 0) {\n            IBookKeeper(_bookKeeper).addToWhitelist(_stablecoinAdapter);\n        }\n\n        IStablecoinAdapter(_stablecoinAdapter).withdraw(msg.sender, _amount, _data); // Withdraws Fathom Stablecoin to the user's wallet as a token\n        IManager(_manager).updatePrice(_collateralPoolId);\n\n        emit LogBorrowedAmount(_positionAddress, _amount);\n    }\n\n    function openLockXDCAndDraw(\n        address _manager,\n        address _stabilityFeeCollector,\n        address _xdcAdapter,\n        address _stablecoinAdapter,\n        bytes32 _collateralPoolId,\n        uint256 _stablecoinAmount, // [wad]\n        bytes calldata _data\n    ) external payable onlyDelegateCall returns (uint256 _positionId) {\n        _positionId = open(_manager, _collateralPoolId, address(this));\n        lockXDCAndDraw(_manager, _stabilityFeeCollector, _xdcAdapter, _stablecoinAdapter, _positionId, _stablecoinAmount, _data);\n    }\n\n    function wipeAndUnlockXDC(\n        address _manager,\n        address _xdcAdapter,\n        address _stablecoinAdapter,\n        uint256 _positionId,\n        uint256 _collateralAmount, // [wad]\n        uint256 _stablecoinAmount, // [wad]\n        bytes calldata _data\n    ) external onlyDelegateCall {\n        address _positionAddress = IManager(_manager).positions(_positionId);\n        bytes32 _collateralPoolId = IManager(_manager).collateralPools(_positionId);\n        stablecoinAdapterDeposit(_stablecoinAdapter, _positionAddress, _stablecoinAmount, _data); // Deposits Fathom Stablecoin amount into the bookKeeper\n        // Paybacks debt to the position and unlocks WXDC amount from it\n        int256 _wipeDebtShare = _getWipeDebtShare(\n            IManager(_manager).bookKeeper(),\n            IBookKeeper(IManager(_manager).bookKeeper()).stablecoin(_positionAddress),\n            _positionAddress,\n            _collateralPoolId\n        ); // [wad]\n        adjustPosition(_manager, _positionId, -_safeToInt256(_collateralAmount), _wipeDebtShare, _data);\n        if (_collateralAmount > 0) {\n            moveCollateral(_manager, _positionId, address(this), _collateralAmount, _data); // Moves the amount from the position to proxy's address\n            IGenericTokenAdapter(_xdcAdapter).withdraw(address(this), _collateralAmount, _data); // Withdraws WXDC amount to proxy address as a token\n            IWXDC(address(IGenericTokenAdapter(_xdcAdapter).collateralToken())).withdraw(_collateralAmount); // Converts WXDC to XDC\n            SafeToken.safeTransferETH(msg.sender, _collateralAmount); // Send XDC to user\n        }\n        IManager(_manager).updatePrice(_collateralPoolId);\n\n        emit LogPaidAmount(_positionAddress, _stablecoinAmount);\n    }\n\n    function wipeAllAndUnlockXDC(\n        address _manager,\n        address _xdcAdapter,\n        address _stablecoinAdapter,\n        uint256 _positionId,\n        uint256 _collateralAmount, // [wad]\n        bytes calldata _data\n    ) external onlyDelegateCall {\n        address _bookKeeper = IManager(_manager).bookKeeper();\n        address _positionAddress = IManager(_manager).positions(_positionId);\n        bytes32 _collateralPoolId = IManager(_manager).collateralPools(_positionId);\n        (, uint256 _debtShare) = IBookKeeper(_bookKeeper).positions(_collateralPoolId, _positionAddress); // [wad]\n\n        uint256 _requiredStablecoinAmount = _getWipeAllStablecoinAmount(_bookKeeper, _positionAddress, _positionAddress, _collateralPoolId);\n        // Deposits Fathom Stablecoin amount into the bookKeeper\n        stablecoinAdapterDeposit(_stablecoinAdapter, _positionAddress, _requiredStablecoinAmount, _data);\n        adjustPosition(_manager, _positionId, -_safeToInt256(_collateralAmount), -_safeToInt256(_debtShare), _data); // Paybacks debt to the CDP and unlocks WXDC amount from it\n        if (_collateralAmount > 0) {\n            moveCollateral(_manager, _positionId, address(this), _collateralAmount, _data); // Moves the amount from the CDP positionAddress to proxy's address\n            IGenericTokenAdapter(_xdcAdapter).withdraw(address(this), _collateralAmount, _data);\n            IWXDC(address(IGenericTokenAdapter(_xdcAdapter).collateralToken())).withdraw(_collateralAmount); // Converts WXDC to XDC\n            SafeToken.safeTransferETH(msg.sender, _collateralAmount); // Send XDC to user\n        }\n        IManager(_manager).updatePrice(_collateralPoolId);\n\n        emit LogPaidAmount(_positionAddress, _requiredStablecoinAmount);\n    }\n\n    function redeemLockedCollateral(address _manager, uint256 _positionId, bytes calldata _data) external onlyDelegateCall {\n        IManager(_manager).redeemLockedCollateral(_positionId, address(this), _data);\n    }\n\n    function emergencyWithdraw(address _adapter, address _to) external onlyDelegateCall {\n        IGenericTokenAdapter(_adapter).emergencyWithdraw(_to);\n    }\n\n    /// @param _adapter The address of stablecoin adapter\n    /// @param _positionAddress The address of the Position Handler\n    /// @param _stablecoinAmount The amount in wad to be deposit to Stablecoin adapter [wad]\n    /// @param _data The extra data for stable adapter context\n    function stablecoinAdapterDeposit(\n        address _adapter,\n        address _positionAddress,\n        uint256 _stablecoinAmount, // [wad]\n        bytes calldata _data\n    ) public onlyDelegateCall {\n        require(_positionAddress != address(0), \"CollateralPoolConfig/zero-position-address\");\n        address _stablecoin = address(IStablecoinAdapter(_adapter).stablecoin());\n        // Gets Fathom Stablecoin from the user's wallet\n        _stablecoin.safeTransferFrom(msg.sender, address(this), _stablecoinAmount);\n\n        // Approves adapter to take the Fathom Stablecoin amount\n        _stablecoin.safeApprove(_adapter, _stablecoinAmount);\n        // Deposits Fathom Stablecoin into the bookKeeper\n        IStablecoinAdapter(_adapter).deposit(_positionAddress, _stablecoinAmount, _data);\n    }\n\n    function xdcAdapterDeposit(address _adapter, address _positionAddress, bytes calldata _data) public payable onlyDelegateCall {\n        //##back to Vanilla - Adapter now needs to have collateralToken state variable added\n        address _collateralToken = address(IGenericTokenAdapter(_adapter).collateralToken());\n        // Wraps XDC into WXDC\n        IWXDC(_collateralToken).deposit{ value: msg.value }();\n        // Approves adapter to take the WXDC amount\n        _collateralToken.safeApprove(address(_adapter), msg.value);\n        // Deposits WXDC collateral into the bookKeeper\n        IGenericTokenAdapter(_adapter).deposit(_positionAddress, msg.value, _data);\n    }\n\n    function tokenAdapterDeposit(\n        address _adapter,\n        address _positionAddress,\n        uint256 _amount, // [wad]\n        bool _transferFrom,\n        bytes calldata _data\n    ) public onlyDelegateCall {\n        require(_positionAddress != address(0), \"CollateralPoolConfig/zero-position-address\");\n        address _collateralToken = address(IGenericTokenAdapter(_adapter).collateralToken());\n\n        // Only executes for tokens that have approval/transferFrom implementation\n        if (_transferFrom) {\n            // Gets token from the user's wallet\n            _collateralToken.safeTransferFrom(msg.sender, address(this), _amount);\n        }\n        // Approves adapter to take the token amount\n        _collateralToken.safeApprove(_adapter, _amount);\n        // Deposits token collateral into the bookKeeper\n        IGenericTokenAdapter(_adapter).deposit(_positionAddress, _amount, _data);\n    }\n\n    function transfer(address _collateralToken, address _dst, uint256 _amt) public onlyDelegateCall {\n        address(_collateralToken).safeTransfer(_dst, _amt);\n    }\n\n    function open(address _manager, bytes32 _collateralPoolId, address _usr) public onlyDelegateCall returns (uint256 _positionId) {\n        _positionId = IManager(_manager).open(_collateralPoolId, _usr);\n    }\n\n    function transferOwnership(address _manager, uint256 _positionId, address _usr) public onlyDelegateCall {\n        IManager(_manager).give(_positionId, _usr);\n    }\n\n    function adjustPosition(\n        address _manager,\n        uint256 _positionId,\n        int256 _collateralValue,\n        int256 _debtShare, // [wad]\n        bytes calldata _data\n    ) public onlyDelegateCall {\n        IManager(_manager).adjustPosition(_positionId, _collateralValue, _debtShare, _data);\n    }\n\n    function moveCollateral(\n        address _manager,\n        uint256 _positionId,\n        address _dst,\n        uint256 _collateralAmount,\n        bytes calldata _data\n    ) public onlyDelegateCall {\n        IManager(_manager).moveCollateral(_positionId, _dst, _collateralAmount, _data);\n    }\n\n    function moveStablecoin(\n        address _manager,\n        uint256 _positionId,\n        address _dst,\n        uint256 _stablecoinValue // [rad]\n    ) public onlyDelegateCall {\n        IManager(_manager).moveStablecoin(_positionId, _dst, _stablecoinValue);\n    }\n\n    function lockXDC(address _manager, address _xdcAdapter, uint256 _positionId, bytes calldata _data) public payable onlyDelegateCall {\n        address _positionAddress = IManager(_manager).positions(_positionId);\n        xdcAdapterDeposit(_xdcAdapter, _positionAddress, _data);\n        adjustPosition(_manager, _positionId, _safeToInt256(msg.value), 0, _data); // Locks XDC amount into the CDP\n    }\n\n    function lockXDCAndDraw(\n        address _manager,\n        address _stabilityFeeCollector,\n        address _xdcAdapter,\n        address _stablecoinAdapter,\n        uint256 _positionId,\n        uint256 _stablecoinAmount, // [wad]\n        bytes calldata _data\n    ) public payable onlyDelegateCall {\n        address _positionAddress = IManager(_manager).positions(_positionId);\n        address _bookKeeper = IManager(_manager).bookKeeper();\n        bytes32 _collateralPoolId = IManager(_manager).collateralPools(_positionId);\n\n        xdcAdapterDeposit(_xdcAdapter, _positionAddress, _data);\n        adjustPosition(\n            _manager,\n            _positionId,\n            _safeToInt256(msg.value),\n            _getDrawDebtShare(_bookKeeper, _stabilityFeeCollector, _positionAddress, _collateralPoolId, _stablecoinAmount),\n            _data\n        );\n        // Moves the Fathom Stablecoin amount (balance in the bookKeeper in rad) to proxy's address\n        moveStablecoin(_manager, _positionId, address(this), toRad(_stablecoinAmount));\n        // Allows adapter to access to proxy's Fathom Stablecoin balance in the bookKeeper\n        if (IBookKeeper(_bookKeeper).positionWhitelist(address(this), address(_stablecoinAdapter)) == 0) {\n            IBookKeeper(_bookKeeper).addToWhitelist(_stablecoinAdapter);\n        }\n        // Withdraws Fathom Stablecoin to the user's wallet as a token\n        IStablecoinAdapter(_stablecoinAdapter).withdraw(msg.sender, _stablecoinAmount, _data);\n        IManager(_manager).updatePrice(_collateralPoolId);\n\n        emit LogBorrowedAmount(_positionAddress, _stablecoinAmount);\n    }\n\n    function lockToken(\n        address _manager,\n        address _tokenAdapter,\n        uint256 _positionId,\n        uint256 _collateralAmount, // [in token decimal]\n        bool _transferFrom,\n        bytes calldata _data\n    ) public onlyDelegateCall {\n        address _positionAddress = IManager(_manager).positions(_positionId);\n        tokenAdapterDeposit(_tokenAdapter, _positionAddress, _collateralAmount, _transferFrom, _data);\n        adjustPosition(_manager, _positionId, int256(_convertTo18(_tokenAdapter, _collateralAmount)), 0, _data);\n    }\n\n    function lockTokenAndDraw(\n        IManager _manager,\n        address _stabilityFeeCollector,\n        address _tokenAdapter,\n        address _stablecoinAdapter,\n        uint256 _positionId,\n        uint256 _collateralAmount, // [in token decimal]\n        uint256 _stablecoinAmount, // [wad]\n        bool _transferFrom,\n        bytes calldata _data\n    ) public onlyDelegateCall {\n        bytes32 _collateralPoolId = _manager.collateralPools(_positionId);\n        // Takes token amount from user's wallet and joins into the bookKeeper\n        tokenAdapterDeposit(_tokenAdapter, _manager.positions(_positionId), _collateralAmount, _transferFrom, _data);\n        // Locks token amount into the position and generates debt\n        int256 _collateralAmountInWad = _safeToInt256(_convertTo18(_tokenAdapter, _collateralAmount));\n        int256 _drawDebtShare = _getDrawDebtShare(\n            _manager.bookKeeper(),\n            _stabilityFeeCollector,\n            _manager.positions(_positionId),\n            _collateralPoolId,\n            _stablecoinAmount\n        ); // [wad]\n        adjustPosition(address(_manager), _positionId, _collateralAmountInWad, _drawDebtShare, _data);\n        // Moves the Fathom Stablecoin amount (balance in the bookKeeper in rad) to proxy's address\n        moveStablecoin(address(_manager), _positionId, address(this), toRad(_stablecoinAmount));\n        // Allows adapter to access to proxy's Fathom Stablecoin balance in the bookKeeper\n        if (IBookKeeper(_manager.bookKeeper()).positionWhitelist(address(this), address(_stablecoinAdapter)) == 0) {\n            IBookKeeper(_manager.bookKeeper()).addToWhitelist(_stablecoinAdapter);\n        }\n        // Withdraws FXD to the user's wallet as a token\n        IStablecoinAdapter(_stablecoinAdapter).withdraw(msg.sender, _stablecoinAmount, _data);\n\n        address _positionAddress = IManager(_manager).positions(_positionId);\n        IManager(_manager).updatePrice(_collateralPoolId);\n\n        emit LogBorrowedAmount(_positionAddress, _stablecoinAmount);\n    }\n\n    function openLockTokenAndDraw(\n        address _manager,\n        address _stabilityFeeCollector,\n        address _tokenAdapter,\n        address _stablecoinAdapter,\n        bytes32 _collateralPoolId,\n        uint256 _collateralAmount, // [in token decimal]\n        uint256 _stablecoinAmount, // [wad]\n        bool _transferFrom,\n        bytes calldata _data\n    ) public onlyDelegateCall returns (uint256 _positionId) {\n        _positionId = open(_manager, _collateralPoolId, address(this));\n        lockTokenAndDraw(\n            IManager(_manager),\n            _stabilityFeeCollector,\n            _tokenAdapter,\n            _stablecoinAdapter,\n            _positionId,\n            _collateralAmount,\n            _stablecoinAmount,\n            _transferFrom,\n            _data\n        );\n    }\n\n    function wipeAndUnlockToken(\n        address _manager,\n        address _tokenAdapter,\n        address _stablecoinAdapter,\n        uint256 _positionId,\n        uint256 _collateralAmount, // [in token decimal]\n        uint256 _stablecoinAmount, // [wad]\n        bytes calldata _data\n    ) public onlyDelegateCall {\n        address _positionAddress = IManager(_manager).positions(_positionId);\n        bytes32 _collateralPoolId = IManager(_manager).collateralPools(_positionId);\n        // Deposits Fathom Stablecoin amount into the bookKeeper\n        stablecoinAdapterDeposit(_stablecoinAdapter, _positionAddress, _stablecoinAmount, _data);\n        uint256 _collateralAmountInWad = _convertTo18(_tokenAdapter, _collateralAmount);\n        // Paybacks debt to the CDP and unlocks token amount from it\n        int256 _wipeDebtShare = _getWipeDebtShare(\n            IManager(_manager).bookKeeper(),\n            IBookKeeper(IManager(_manager).bookKeeper()).stablecoin(_positionAddress),\n            _positionAddress,\n            _collateralPoolId\n        );\n        adjustPosition(_manager, _positionId, -_safeToInt256(_collateralAmountInWad), _wipeDebtShare, _data);\n        if (_collateralAmount > 0) {\n            moveCollateral(_manager, _positionId, address(this), _collateralAmountInWad, _data); // Moves the amount from the position to proxy's address\n            IGenericTokenAdapter(_tokenAdapter).withdraw(msg.sender, _collateralAmount, _data); // Withdraws token amount to the user's wallet as a token\n        }\n        IManager(_manager).updatePrice(_collateralPoolId);\n\n        emit LogPaidAmount(_positionAddress, _stablecoinAmount);\n    }\n\n    function wipeAllAndUnlockToken(\n        address _manager,\n        address _tokenAdapter,\n        address _stablecoinAdapter,\n        uint256 _positionId,\n        uint256 _collateralAmount, // [token decimal]\n        bytes calldata _data\n    ) public onlyDelegateCall {\n        address _positionAddress = IManager(_manager).positions(_positionId);\n        bytes32 _collateralPoolId = IManager(_manager).collateralPools(_positionId);\n        (, uint256 _debtShare) = IBookKeeper(IManager(_manager).bookKeeper()).positions(_collateralPoolId, _positionAddress);\n\n        uint256 _requiredStablecoinAmount = _getWipeAllStablecoinAmount(\n            IManager(_manager).bookKeeper(),\n            _positionAddress,\n            _positionAddress,\n            _collateralPoolId\n        );\n        // Deposits Fathom Stablecoin amount into the bookKeeper\n        stablecoinAdapterDeposit(_stablecoinAdapter, _positionAddress, _requiredStablecoinAmount, _data);\n        uint256 _collateralAmountInWad = _convertTo18(_tokenAdapter, _collateralAmount);\n        // Paybacks debt to the position and unlocks token amount from it\n        adjustPosition(_manager, _positionId, -_safeToInt256(_collateralAmountInWad), -_safeToInt256(_debtShare), _data);\n        if (_collateralAmount > 0) {\n            moveCollateral(_manager, _positionId, address(this), _collateralAmountInWad, _data); // Moves the amount from the position to proxy's address\n            IGenericTokenAdapter(_tokenAdapter).withdraw(msg.sender, _collateralAmount, _data); // Withdraws token amount to the user's wallet as a token\n        }\n        IManager(_manager).updatePrice(_collateralPoolId);\n\n        emit LogPaidAmount(_positionAddress, _requiredStablecoinAmount);\n    }\n\n    function _getDrawDebtShare(\n        address _bookKeeper,\n        address _stabilityFeeCollector,\n        address _positionAddress,\n        bytes32 _collateralPoolId,\n        uint256 _stablecoinAmount // [wad]\n    ) internal returns (int256 _resultDebtShare) {\n        uint256 _debtAccumulatedRate = IStabilityFeeCollector(_stabilityFeeCollector).collect(_collateralPoolId); // [ray]. Updates stability fee rate\n        uint256 _positionStablecoinValue = IBookKeeper(_bookKeeper).stablecoin(_positionAddress); // [rad]. Gets Fathom Stablecoin balance of the positionAddress in the bookKeeper\n\n        // If there was already enough Fathom Stablecoin in the bookKeeper balance, just exits it without adding more debt\n        if (_positionStablecoinValue < toRad(_stablecoinAmount)) {\n            // Calculates the needed resultDebtShare so together with the existing positionStablecoinValue in the bookKeeper is enough to exit stablecoinAmount of Fathom Stablecoin tokens\n            _resultDebtShare = _safeToInt256((toRad(_stablecoinAmount) - _positionStablecoinValue) / _debtAccumulatedRate);\n            // This is needed due lack of precision. It might need to sum an extra resultDebtShare wei (for the given Fathom Stablecoin stablecoinAmount)\n            _resultDebtShare = (_safeToUint256(_resultDebtShare) * _debtAccumulatedRate) < toRad(_stablecoinAmount)\n                ? _resultDebtShare + 1\n                : _resultDebtShare;\n        }\n    }\n\n    function _convertTo18(address _tokenAdapter, uint256 _amt) internal returns (uint256 _wad) {\n        // For those collaterals that have less than 18 decimals precision we need to do the conversion before passing to adjustPosition function\n        // Adapters will automatically handle the difference of precision\n        uint256 decimals = IToken(IGenericTokenAdapter(_tokenAdapter).collateralToken()).decimals();\n        _wad = decimals < 18 ? _amt * (10 ** (18 - decimals)) : _amt / (10 ** (decimals - 18));\n    }\n\n    function _getWipeDebtShare(\n        address _bookKeeper,\n        uint256 _stablecoinValue, // [rad]\n        address _positionAddress,\n        bytes32 _collateralPoolId\n    ) internal view returns (int256 _resultDebtShare) {\n        uint256 _debtAccumulatedRate = ICollateralPoolConfig(IBookKeeper(_bookKeeper).collateralPoolConfig()).getDebtAccumulatedRate(\n            _collateralPoolId\n        ); // [ray]. // Gets actual rate from the bookKeeper\n        (, uint256 _debtShare) = IBookKeeper(_bookKeeper).positions(_collateralPoolId, _positionAddress); // [wad]. // Gets actual debtShare value of the positionAddress\n\n        _resultDebtShare = _safeToInt256(_stablecoinValue / _debtAccumulatedRate); // [wad]. // Uses the whole stablecoin balance in the bookKeeper to reduce the debt\n        // [wad]. // Checks the calculated resultDebtShare is not higher than positionAddress.art (total debt), otherwise uses its value\n        _resultDebtShare = _safeToUint256(_resultDebtShare) <= _debtShare ? -_resultDebtShare : -_safeToInt256(_debtShare);\n    }\n\n    function _getWipeAllStablecoinAmount(\n        address _bookKeeper,\n        address _usr,\n        address _positionAddress,\n        bytes32 _collateralPoolId\n    ) internal view returns (uint256 _requiredStablecoinAmount) {\n        uint256 _debtAccumulatedRate = ICollateralPoolConfig(IBookKeeper(_bookKeeper).collateralPoolConfig()).getDebtAccumulatedRate(\n            _collateralPoolId\n        ); // [ray]. Gets actual rate from the bookKeeper\n        (, uint256 _debtShare) = IBookKeeper(_bookKeeper).positions(_collateralPoolId, _positionAddress); // [wad]. Gets actual debtShare value of the positionAddress\n        uint256 _stablecoinValue = IBookKeeper(_bookKeeper).stablecoin(_usr); // [rad]. Gets actual stablecoin amount in the usr\n\n        uint256 _positionDebtValue = _debtShare * _debtAccumulatedRate;\n        uint256 _requiredStablecoinValue = _positionDebtValue >= _stablecoinValue ? _positionDebtValue - _stablecoinValue : 0; // [rad]\n        _requiredStablecoinAmount = _requiredStablecoinValue / RAY; // [wad] = [rad]/[ray]\n\n        // If the value precision has some dust, it will need to request for 1 extra amount wei\n        _requiredStablecoinAmount = toRad(_requiredStablecoinAmount) < _requiredStablecoinValue\n            ? _requiredStablecoinAmount + 1\n            : _requiredStablecoinAmount;\n    }\n\n    function _safeToInt256(uint256 _number) internal pure returns (int256) {\n        require(int256(_number) >= 0, \"FathomStablecoinProxyActions/overflow\");\n        return int256(_number);\n    }\n\n    function _safeToUint256(int256 _number) internal pure returns (uint256) {\n        require(_number >= 0, \"FathomStablecoinProxyActions/underflow\");\n        return uint256(_number);\n    }\n}\n",
  "sourcePath": "/Users/vitaliikoval/dev/fathom-stablecoin-smart-contracts/contracts/main/proxy-actions/FathomStablecoinProxyActions.sol",
  "compiler": {
    "name": "solc",
    "version": "0.8.17+commit.8df45f5f.Emscripten.clang"
  },
  "schemaVersion": "3.4.16",
  "updatedAt": "2024-05-16T12:52:51.750Z",
  "devdoc": {
    "kind": "dev",
    "methods": {
      "stablecoinAdapterDeposit(address,address,uint256,bytes)": {
        "params": {
          "_adapter": "The address of stablecoin adapter",
          "_data": "The extra data for stable adapter context",
          "_positionAddress": "The address of the Position Handler",
          "_stablecoinAmount": "The amount in wad to be deposit to Stablecoin adapter [wad]"
        }
      }
    },
    "version": 1
  },
  "userdoc": {
    "kind": "user",
    "methods": {},
    "notice": "WARNING: These functions meant to be used as a library for a Proxy.DO NOT CALL ANY FUNCTION IN THIS CONTRACT DIRECTLY.Hence, it shouldn't has any state variables. Some are unsafe if you call them directly.",
    "version": 1
  }
}